:02000002B0004C
:1040000000400B002C7B0B00000006000C0005029A
:0840100004016810000000002B
:04401800E0750B0044
:10401C0009480A49884208B505D0094A824202D0AB
:10402C00121A03F025FA0748074A0021121A03F066
:10403C002DFA014808BD00BF48E10320987A0B0017
:10404C00B4E10320B4E10320EDE7032070B5074E83
:10405C00074C03F0DBF8A41BA4080025AC4200D1EC
:10406C0070BD56F8043B98470135F7E7447A0B00CE
:10407C00687A0B0000F090B808B500F06DF9BDE857
:10408C00084003F07BB802F0A3BB02F0A1BB02F026
:10409C00A7BB0078B0FA80F0400970470123037089
:1040AC0070477047037C13F008031EBFC36A406A55
:1040BC001B1A002BACBF18466FF0004070477047BE
:1040CC0010B510210446FFF7E2FF204610BD10B5D5
:1040DC0034210446FFF7DBFF204610BD103001F001
:1040EC0075B8103000F093BF07B501220DF1070130
:1040FC00103000F0DEFE01280CBF9DF807004FF0D9
:10410C00FF3003B05DF804FB103001F0E9B807B5DF
:10411C0001228DF8071010300DF1070101F0E0F8C5
:10412C0003B05DF804FB0EB403B503AB002153F8E8
:10413C00042B019302F0CDFD02B05DF804EB03B04B
:10414C007047000073B5044608462279A36832B163
:10415C00A3B90B4902B0BDE8704002F07DBD094A1D
:10416C00267B094D0949647B012E18BF2946CDE9F0
:10417C0000140749FFF7D7FF02B070BD054AEFE7FF
:10418C0005760B00FC750B0001760B00FD750B0022
:10419C001B760B00F4750B0070B58EB002F068FF47
:1041AC004FF4165102F052FF02F062FF02F055FF7D
:1041BC0018B9012002F034FBF6E703F0DDF8002318
:1041CC0002463921534800F0A5F940B902F050FFDE
:1041DC00514902F054FD0A2002F022FBFBE7FF21BB
:1041EC004C4800F0EEF940F2E7314A4800F0FCF997
:1041FC004848082100F00CFA484800F0B7FD28B9EF
:10420C0002F036FF464902F03AFDFEE7434800F063
:10421C00AFFD20B902F02CFF424902F030FD03F053
:10422C00ABF858210246404800F09DFA40B902F024
:10423C001FFF3E4902F023FD0A2002F0F1FAFBE7D2
:10424C0002F016FF3A493B4C02F019FD36480322A6
:10425C00012100F02DFA344803220A2100F028FA3B
:10426C0031480322002100F023FA334B0193002341
:10427C008DF8083004F58C66304B0393012501ABA7
:10428C00052204F26C413046ADF8105001F072FE7C
:10429C00F8B104F23C40266000F0CEFF29462046DF
:1042AC0001F012FD04F23C45014668B1214901F2CE
:1042BC003C4000F0F8FD60B194F83C3413F0700F02
:1042CC001CBF1F4B1D6004E0204601F0FDFC0028C4
:1042DC00ECD100234FF47A72CDE902320593194BDD
:1042EC000193194A194944F2022305A800F0ABFFC7
:1042FC009DF8143043B1164901A802F0C0FC05A882
:10430C0000F09AFF0EB070BD02F0B2FE114902F03F
:10431C00C0FCF7E750E6032038760B00B0E603202C
:10432C004E760B0060760B0078E6032074760B005B
:10433C0094760B00C0E1032018780B0080F0FA0291
:10434C00B8E603202C780B00A2760B00FCE50320CA
:10435C00D0760B00FC770B0038B5042401210846FD
:10436C0002F0D5FF4FF4FA7002F05AFA0021012046
:10437C0002F0CDFF4FF4FA7002F052FA013CEDD18D
:10438C002146012002F0C3FF4FF47A7002F048FA84
:10439C0002F022F84EF65F25044602F01DF8031BCE
:1043AC00AB42FAD900210A2002F0B1FF01210846E4
:1043BC0002F0ADFF4FF4FA7002F032FA0021012046
:1043CC0002F0A5FF4FF4FA7002F02AFA0121084618
:1043DC0002F09DFF4FF4FA7002F022FA0021012046
:1043EC0002F095FF4FF4FA7002F01AFA42F21070D4
:1043FC0002F016FA03240121084602F088FF4FF45C
:10440C00FA7002F00DFA0021012002F080FF4FF447
:10441C00FA7002F005FA013CEDD12046012102F0C0
:10442C0076FF01F0D9FF4EF65F25044601F0D4FF6C
:10443C00031BAB42FAD90021084602F068FF0121A8
:10444C00BDE83840084602F062BF000037B524488A
:10445C00244C254D00F056F8244800F0ECF8244A82
:10446C0000234FF47A71C2E90131224913611160C2
:10447C006422C4F86024204AC4F8702401226360CA
:10448C00C4F83C34C4F8683484F87424C4F8783420
:10449C00A4F87C342978BFF35B8F11400BD12846EC
:1044AC000191FFF7F6FD019928B1144802F04EFC7A
:1044BC002846FFF7F3FD114BC4F86C3400210120A2
:1044CC0002F0FAF80E4B0022C3E900220220A2F5FA
:1044DC0080329A6003B0BDE8304002F0DDB800BF16
:1044EC0050E60320C0E10320B4E1032078E603206A
:1044FC007CE603202C780B0018780B00B8E1032025
:10450C0044E60320024A0260002202718260704776
:10451C0054780B002DE9F041044680680F46904614
:10452C001E4610B11021FFF7B2FD1020FFF7ABFDB6
:10453C00054618B14246394600F048FAA5600121FB
:10454C00284600F05FFA30B12368314620461B68DC
:10455C00BDE8F0411847BDE8F08170B501258AB07F
:10456C000026CDE900650C462B468168802204A804
:10457C0000F037F933462A4604A902A800F008FADD
:10458C00214602A800F009FA0AB070BD70B50125E9
:10459C0088B00024CDE900452B468168922206465E
:1045AC0002A800F01EF902A800F0D6F9C30706D441
:1045BC0030462946FFF7D1FF284608B070BD20468B
:1045CC00FBE730B5012389B00025CDE900530C463B
:1045DC008122816802A800F004F92A46214602A82B
:1045EC0000F05AF909B030BD30B5012389B000256F
:1045FC00CDE900530C4602238168CA2202A800F0C0
:10460C00F0F82A46214602A800F046F909B030BD60
:10461C0030B5012389B00025CDE900530C46AA2200
:10462C00816802A800F0DDF82A46214602A800F0B5
:10463C0033F909B030BD00220260704710B5012378
:10464C0088B00024CDE900437F22016802A800F065
:10465C00C8F82246214602A800F01EF908B010BD89
:10466C0030B5012389B00025CDE900530C46022357
:10467C000168062202A800F0B4F82A46E14302A819
:10468C0000F00AF909B030BD30B5012389B000251E
:10469C00CDE900530C4602230168042202A800F065
:1046AC00A0F82A46E14302A800F0F6F809B030BDA4
:1046BC002DE9F041012492B00026CDE900640F46AB
:1046CC008046016815460223042206A800F089F8EA
:1046DC003B46224606A902A800F05AF9D8F8001069
:1046EC0002231222CDE900640CA800F07AF83B46B4
:1046FC0022460CA904A800F04BF9A5420AD1314678
:10470C0002A800F04AF9294604A800F046F912B0B4
:10471C00BDE8F0813DB1032DF9D1314602A800F07E
:10472C003CF93146F0E7214602A800F036F9214663
:10473C00EAE730B500238BB00125CDE900350C46F6
:10474C002B460168112204A800F04BF804232A46DA
:10475C0004A902A800F01CF984EA050102A800F0E3
:10476C001CF90BB030BDF0B50446006889B00E469C
:10477C00174610B11021FFF78AFC1020FFF783FCBD
:10478C00054618B13A46314600F020F92560012162
:10479C00284600F037F918B90025284609B0F0BDB5
:1047AC002046FFF74BFF05460028F5D001230026D5
:1047BC00CDE900632168102202A800F012F802A8CB
:1047CC0000F0CAF82328E7D131462046FFF75CFFFA
:1047DC0031462046FFF7ADFF31462046FFF740FF3C
:1047EC00DBE730B50025C0E9001542819DF81010BB
:1047FC009DF80C20456141738273037330BDF0B595
:10480C004589847A85B0034600688DF80C402D0AE2
:10481C000E4617468DF80D5040B15B7B019303ABF0
:10482C000093012300F0FDF805B0F0BD5868002896
:10483C00FAD093F808E093F80DC0BEF1030F0CD139
:10484C000CF1010325F0010500938DF80C508DF847
:10485C000D4003AB00F01DFAE6E7BEF1000F09D1E5
:10486C0004F07F048DF80C40CDF800C003AB3A4641
:10487C003146EFE7BEF1020F02D164F07F04F1E79D
:10488C00BEF1010F01BF9DF80C3003F07F0343F024
:10489C0040038DF80C30E7E7F0B40B4602B9027B0D
:1048AC00042A14D800F10F05436184182946844268
:1048BC0009D0877BDEB227B92E701B0A0135013C6B
:1048CC00F5E7A673F9E72046F0BCFFF798BF002088
:1048DC00F0BC70477FB54689857A8DF80C5004463C
:1048EC000068360A0B468DF80D6040B10021CDE909
:1048FC00002103A9627B00F002F904B070BD60686E
:10490C000028FAD0217A647B03290DD146F00106E8
:10491C00FF21CDE900218DF80C608DF80D50621C43
:10492C0003A900F0E8F9E8E741B965F07F058DF8D7
:10493C000C50FF21CDE900212246F1E7022902D1DA
:10494C0005F07F05F3E7012902BF9DF80C1061F01B
:10495C003F018DF80C10ECE738B500F10F05027B28
:10496C0029460446FFF7B6FF78B1227B294622443C
:10497C000020A2420BD00302A07B20B9907B1843ED
:10498C00013A0131F5E70878F9E74FF0FF3038BD0F
:10499C0010B501600271437110BD70B5044600681A
:1049AC000E46FFF7D9FF2379617901229A40531EF5
:1049BC0003FA01F520EA05053340206803FA01F1FA
:1049CC002943027BBDE87040FFF766BF42600022BE
:1049DC00027220220170C260704710B5037A04463F
:1049EC0053B12178606801F0E1FF606801F0E9FFE4
:1049FC00B0FA80F0400910BD012100F003F8002846
:104A0C00EFD1F8E738B5044640680D4601F09CFF3D
:104A1C000120207225B12046BDE83840FFF7DDBFEC
:104A2C0038BD2DE9F843DDE908961F46C3681546E5
:104A3C0032449A420446884602D90020BDE8F883E5
:104A4C000178406801F0B2FF7EB9606803682A46BD
:104A5C00DB68414698478542EFD16068394601F0E2
:104A6C00ACFFB0FA80F04009E8E7B9F1000FECD0E8
:104A7C00606803683246DB68494698478642DCD159
:104A8C00E3E72DE9F041154604460E46D2B2017813
:104A9C00406801F076FF85420DD100271FFA87F898
:104AAC00A84507F1010709D2606803685B6998475C
:104ABC0006F80800F2E70020BDE8F0810120FBE7D2
:104ACC002DE9F84307468846164699460025B54217
:104ADC0012D2FA68741B944228BF1446331BAB42A3
:104AEC0094BF4B460023224608EB05013846FFF7DE
:104AFC00C8FF10B12544EAE70120BDE8F88373B57F
:104B0C001D460023CDE900339DF81C30069E04465B
:104B1C00FFF787FF40B1012332462946204602B0F9
:104B2C00BDE87040FFF7CCBF02B070BD2DE9F04F6F
:104B3C000446006885B00D4640B10023009313462F
:104B4C000A4602F0AFF905B0BDE8F08F237BA068F0
:104B5C00484FB7FBF0F7002B0B780CBF4FF0010B55
:104B6C004FF0800B1BEA030F01EB02030CBF4FF05D
:104B7C0001094FF00009FFB20393039BAB42E2D053
:104B8C0095F800A05E464FF0000817B1384601F0CA
:104B9C0013FC637B13F0FD0F41D194F910305A1CB8
:104BAC000FD01AEA060114BF012300234B4508D08D
:104BBC006369606A1A6800292CD002431A604FF0AE
:104BCC000109A169E36A0A6813430B6017B13846FF
:104BDC0001F0F2FB94F91130013306D0E3691A6845
:104BEC00A36A1A4218BF46EA0808A169E36A0A6870
:104BFC0022EA03030B6094F91130013318BF85F8D6
:104C0C000080237B002B32D17600F6B2002EBCD173
:104C1C000135B2E722EA00021A608946D1E7A169A0
:104C2C00E36A0A6813430B6017B1384601F0C4FB02
:104C3C0094F91030013308D06369616A1A681AEA72
:104C4C00060F14BF0A438A431A60A169E36A0A6813
:104C5C0022EA03030B6094F911300133CBD0E369E2
:104C6C001A68A36A1A4218BF46EA0808C3E776080E
:104C7C00CCE700BF20A1070007B501228DF8071073
:104C8C000DF10701FFF752FF9DF8070003B05DF827
:104C9C0004FB2DE9F041044600680E4617461D46FC
:104CAC0010B1616802F08AF894F90E00002180B20C
:104CBC0002F02DFB069B05EB0308454508D1374454
:104CCC00B7420BD016F8011B2046FFF7D5FFF7E7CC
:104CDC0015F8011B2046FFF7CFFFEEE794F90E0005
:104CEC00012180B202F013FB206808B102F04CF8ED
:104CFC000120BDE8F0812DE9F041044600689DF8E3
:104D0C001C800E4617461D4610B1616802F056F81D
:104D1C0094F90E00002180B202F0F9FA3744BE4239
:104D2C000AD1069BEE18AE420CD041462046FFF746
:104D3C00A3FF05F8010BF6E716F8011B2046FFF759
:104D4C009BFFECE794F90E00012180B202F0DFFA30
:104D5C00206808B102F018F80120BDE8F08108B510
:104D6C0002F00AFB01F0F0FD012008BDFFF7F7BFD0
:104D7C0008B502F001FB682101F01CFE02F0FCFA00
:104D8C00036802219B68984702F0F6FA01F019FEBD
:104D9C0002F0F2FA0122682101F005FE02F0ECFAB1
:104DAC0003685B69984700F0E000E03818BF012009
:104DBC0008BD38B504460D462422002102F066FBDE
:104DCC00A560EB79102B03D0202B06D0002038BD2A
:104DDC00202301202370A070F9E74023F9E710B5D8
:104DEC000446243000F062FE28B104F50C70BDE8D6
:104DFC00104000F05BBE10BD8378016943F00403E2
:104E0C00837000F11002806800F006BF2DE9F041BC
:104E1C00017811F02005044603D000263046BDE889
:104E2C00F0814269174B9A42F7D2FFF7E5FF06462D
:104E3C000028F2D02169A06800F083FE0746A06824
:104E4C0005223946243000F059FE80460028E4D073
:104E5C0029464FF4007202F019FB0125A3681A7958
:104E6C00AA4209D918684246E91901F0B4F9002898
:104E7C00D3D00135EDB2F1E7636903EB42236361F3
:104E8C00CCE700BF00FE1F0010B5044680680A4640
:104E9C002430A16900F032FE20B1A38803F00F0387
:104EAC0000EB431010BD03780BB9FFF782BF002055
:104EBC0070472DE9F74F0378044688461546002BBA
:104ECC005DD08278D1075AD51A072DD5C3694269AE
:104EDC009B1A9D4228BF1D462E464FF0000904F137
:104EEC00100B002E00F08F8022786369A068970663
:104EFC00C3F3080A4FEA53211FD5006A0144A06886
:104F0C00BAF1000F42D1B6F5007F3FD3C36A994284
:104F1C003CD0B6F5806F52D20068424601F0D2F810
:104F2C0068B34FF4007744E09B06D5D583681A89A3
:104F3C004369C3EB42139BB2CBE790F8059009EAA7
:104F4C000109BAF1000F08D1B9F1000F05D15BB915
:104F5C0051064CBF036A236A23612169A06800F0E3
:104F6C00F0FD09EB0001CAE721695A4600F0EFFD9C
:104F7C00002804DBF1D1237813F0700F43D1637850
:104F8C0043F0020363704FF0FF303DE0CAF5007749
:104F9C00B7424FF0000200F1240028BF374600F062
:104FAC00ADFD0028EBD000EB0A013A46404602F07A
:104FBC005FFA63693B44B8446361F61B91E722785E
:104FCC0092064FEA562A06D40279A2EB0902D2B213
:104FDC00924528BF924699424FEA4A2708D2A068C8
:104FEC0053460068424601F0B5F80028E1D1C6E707
:104FFC0053448B42F3D92430019100F057FD0199B1
:10500C000028ECD1BBE7A81B03B0BDE8F08F73B54B
:10501C0001220DF10701D0E904560446FFF749FFC0
:10502C0001280ABF9DF807004FF0FF30C4E9045671
:10503C0002B070BD37B5436913F4F07F0446C3F377
:10504C00431500D099B901220DF107012046FFF755
:10505C0030FF40B2012802D0002003B030BD63699C
:10506C001F33A0686361303000EB4510F5E7203347
:10507C00F7E72DE9F0410278076904460D4662B165
:10508C004069884202D019B921616561012006E0AE
:10509C00160706D5E3698B420BD227610020BDE8C9
:1050AC00F081910605D5A3681B89B5EB431FECD99C
:1050BC00F3E7D4F808C09CF80660431E06F109011A
:1050CC006E1ECB40CE40B34200D898B953064CBFAD
:1050DC00DCF82030236A236104F11008002ED4D0B0
:1050EC002169A068424600F032FD002806F1FF3627
:1050FC00F4DCD2E7F61AEFE7F8B50F46044615468E
:10510C00002124221E4602F0C1F9B868A060A580D7
:10511C0005F00F053B6AE3606A0100EB451595F855
:10512C003B301F0744D403F01703237095F83B1052
:10513C0011F0180F04BF43F0080323709DF81830CA
:10514C00E37006F00303012B2CD0022B28D07BBB81
:10515C0071052DD40123A370A1788B0704D5237876
:10516C00DF0625D4DD0723D4B31123F07F0306F02B
:10517C0008052B430B43A370C36AA3618318B3F8D0
:10518C004420B3F84A1041EA0241720513D559B9CB
:10519C00A37843F00403A370730410D40120F8BD6A
:1051AC000323D8E70223D6E700F071FD0028EFD1E6
:1051BC0000202070F3E72162DB6CE361ECE7E1692E
:1051CC002046FFF756FF0028E8D1F1E738B5037801
:1051DC0004460BB9012038BD83785A0723D5012129
:1051EC00FFF752FE054628B9637843F0010363705C
:1051FC000020F0E70378E52BF6D023781B0744BF9B
:10520C00E369C361236A4383638C8382094B1B6804
:10521C002BB100F11601183098472B8B6B82A378B9
:10522C0023F00403A370A068FFF7D9FD0028DBD09E
:10523C00D0E700BFB4E6032010B50446FFF7C6FF65
:10524C000023237010BDF0B593B01F4600230993C3
:10525C000378019206460C4613B1002013B0F0BD42
:10526C000B7813F0700FF8D013782F2B12D1019A02
:10527C0013782F2B02D101320192F8E7A1681BB9E8
:10528C003046FFF710FEE9E709A8FFF792FD00286A
:10529C00E3D009AC019801AA03A900F00BF900288E
:1052AC00DBD0019B1B789BB1002303AA214630461F
:1052BC0000F032FA0028D0D035460FCD09AC0FC41F
:1052CC000FCD0FC42B6823603046FFF7B5FFE0E726
:1052DC003B4603AA2146304600F01EFABEE700000A
:1052EC002DE9F047037889461907044617465BD524
:1052FC0083789A0758D51B0751D46369DB43BB42AB
:10530C0052D3B84604F1100A6669B8F1000F00F0E8
:10531C009180A0684379C6F3080513EA56260ED18E
:10532C006DB92169002946D0524600F010FC0028C6
:10533C003ADB04D12046FFF75FFD002834D0216909
:10534C00A06800F0FEFB3118A06815B9B8F5007F15
:10535C003FD2C5F50076464528BF4646002D36D1CE
:10536C006269E3699A4234BF01220522243000F0BD
:10537C00C5FBC8B1284432464946354402F078F89A
:10538C00B5F5007F04D1A068243000F08FFB58B134
:10539C00636933446361B144A8EB0608B4E7C1699F
:1053AC00FFF767FE0028A8D1637843F00103637010
:1053BC004FF0FF3050E0236A3BB92046FFF71CFD4D
:1053CC000028F1D023692362B9E72361B7E70122F2
:1053DC00CCE7B8F5806FC26A1BD390F804C0ACEB75
:1053EC000606F3B24FEA582E734528BF7346914216
:1053FC004FEA432607D31A448A4282BF4FF0FF324A
:10540C0080F82450C262A5684A46286800F059FF0B
:10541C00BDE7914202BF4FF0FF3380F82450C362C6
:10542C00A3684A46186800F0D6FE0028BCD04FF49A
:10543C000076ADE7E269A378B24204D2E66143F0AC
:10544C000403A37003E0084A1268002AF7D194F908
:10545C000230002B02DB3846BDE8F0872046FFF710
:10546C00B5FE0028F7D19FE7B4E60320042904D841
:10547C0000EB4100B0F8010070470A299BBF01F115
:10548C00FF3100EB41000131C08884BF00EB4100CB
:10549C0080887047411E00F10A030020420842EA4E
:1054AC00C01011F8012F52FA80F08B42C0B2F5D126
:1054BC00704700002DE9F047064610F8013B202B01
:1054CC00FAD06A4D8E600024335DC3B12F2B16D0F9
:1054DC005C2B02D10020BDE8F087A3F12200C0B202
:1054EC001D2803D825FA00F0C007F3D403F0BF0041
:1054FC003C28EFD0203B5E2BECD80134E4E7331989
:10550C001846074610F8015B202DFAD02F2DF8D045
:10551C0017604CB113F8012D2E2A01D0202A01D18D
:10552C00013CF6E7FF2CD5DC4FF02033C1F81130ED
:10553C004C60C1F80D304B614FF0000816F8083084
:10554C002E2B01D0202B02D108F10108F6E7B8FA76
:10555C0088F04009651E6B1C02D0735D2E2B14D194
:10556C004FF0000907274A46CA464FF0080EA045DF
:10557C0068DA16F80830202B03D02E2B07D1A8455B
:10558C0012D0002008F10108F1E7013DE3E7222BDE
:10559C0008D07C2B06D0A3F12A0CBCF1050F0AD83D
:1055AC002D2B12D0A8455BD10A2F4AD00A270822EE
:1055BC004FF0100EE6E7A3F13A0CBCF1050FF1D950
:1055CC00A3F15B0CBCF1020FECD9A3F1210CBCF1E3
:1055DC005D0FE7D8A845E7D0BA4230D8A3F1610CEB
:1055EC00BCF1190F1AD8203B4EEA0909DBB25FFA5D
:1055FC0089F902F1010C5FFA8CFC0A44BCF1060F2C
:10560C00537301D881F80CC06246BBE7A84518DC7F
:10561C00A8460A2708224FF0100EB2E7A3F1410C5E
:10562C00BCF1190F98BF4EEA0A0AE2E70B7B012086
:10563C00087019447E234B7331238B734BE70A2F6D
:10564C00E4D100204B7B202B3FF444AF0028EDD05D
:10565C001AEA090F18BF4FF0020981F800903AE7D7
:10566C00BA42ECD800205F23C3E700BF0101003130
:10567C002DE9F84391F80C9006460C4602257E273E
:10568C0001F10D086168A2686B189BB2114491423C
:10569C0006D012F8010B03EB431343409BB2F6E721
:1056AC00B9F1030F28BF4FF0030909F10402D2B27C
:1056BC0003F00F01A018013A0929D2B294BF30317E
:1056CC003731914541734FEA1313F1D104EB0903C0
:1056DC0000215F733046FFF7CCFC01213046FFF709
:1056EC00A9FC014628B97078B0FA80F04009BDE8F1
:1056FC00F88303786BB1C37A1B07EED40B224046B8
:10570C0001F0A6FE0028E8D10135ADB2642DB9D167
:10571C00EDE70120EBE700002DE9F04F2DED028BBA
:10572C008BB00D4606930B78079013F0700F17464D
:10573C0005D100200BB0BDEC028BBDE8F08F079BB0
:10574C001B78002BF5D15368059313789C071FBF6A
:10575C00059B0C330D22B3FBF2F31ABF0133DBB202
:10576C000123002128460393FFF783FC07F10D0367
:10577C004FF0000B08EE103ADA465C465E46CDF868
:10578C0010B0D9466B6901212846C3F34F18FFF7B7
:10579C0051FC0346002871D16B78002BC9D1069BB4
:1057AC009A05C6D503F00303013B012BC1D8049B1A
:1057BC00002C08BF43460493039B9C42C0F0F1802D
:1057CC00B9F1000F40F00A81049B28465901FFF7FC
:1057DC0050FC0028ADD0039B03F1FF395FFA89F927
:1057EC004E464FF0000A4FF00F08002E00F00D81CE
:1057FC0000212846FFF71EFC0446002899D0AA6811
:10580C0092F824304E4543F001030CBF46F0400B98
:10581C00B34682F8243080F800B080F80B8080F812
:10582C000CA007F10D00FFF735FE84F81AA0607389
:10583C0084F81BA00BF01F030D22013BD7F808C006
:10584C00534300220599994240F2D0801CF8031072
:10585C00042A5FFA82FE02F1010000F2CD8004EB13
:10586C004202A2F801100D2803F101030246E9D10E
:10587C00013EF6B2B9E74FF0010983E70278E52A59
:10588C0000D07AB90499002C08BF414604910399C1
:10589C008C423CBF0134E4B2002A80D0E52A05D109
:1058AC0000266FE703998C4238BF00242E2AF7D0CC
:1058BC00D97A0F294AD116BB12F040063FF462AFD9
:1058CC0002F01F0693F80DB0B2460D220AF1FF3814
:1058DC0002FB08F8059A4245E2D9A2EB08020892AD
:1058EC00002202EB080109911846D1B2FFF7BEFD68
:1058FC0008998A420DD1002818BF002642E70AF108
:10590C00FF3A5FFA8AFA5245CAD15A7B5A45DCD023
:10591C00C6E7FF28C4D85FFA80FEAEF14101192911
:10592C00B9689CBF0EF120005FFA80FE0846099909
:10593C00415CA1F1410CBCF1190F9CBF2031C9B2E3
:10594C007145ADD101320D2ACBD11BE70807A7D485
:10595C005EB1BAF1010F7FF4ECAE1846FFF79AFD79
:10596C0058457FF4E6AEB1460EE018EE101A0B2245
:10597C00184601F06DFD00287FF404AF97F80090F5
:10598C0019F001097FF477AF069B19053FF5D1AEED
:10599C00069B0798CDF8009042462946FFF7ACFBD2
:1059AC00C8E600212846FFF745FBA0B96B78002B11
:1059BC007FF4BFAE2846FFF729FA00283FF4B9AEB2
:1059CC00AB681B79012B3FF6FBAE039B1034E4B2A2
:1059DC00A342EFD8F4E60134E4B2EDE639462846AA
:1059EC00FFF746FE00287FF4EFAEA2E614BF4FF09F
:1059FC00FF31002189B22BE7BEF10A0F94BF04EBF3
:105A0C00420204EB400291802DE731462846D5F83E
:105A1C001480FFF70FFB044600283FF48AAE2022C7
:105A2C00314601F033FDD7F80D302360D7F8113033
:105A3C006360B7F815302381FB7DA3723B7803F0CC
:105A4C00180323730F4B1B689BB104F10E0104F177
:105A5C0010009847238A63822383E389E382AA6830
:105A6C0092F8243043F00103C8F34F1882F8243025
:105A7C008EE721232374282363740823A673E3730E
:105A8C00E8E700BFB4E6032013B50446084659B155
:105A9C00019101F031FD23680199DB680246204633
:105AAC0002B0BDE81040184702B010BD37B50378FE
:105ABC00DA07044620D54368816800F10C021868A7
:105ACC00019200F088FB019A054618B9002528467A
:105ADC0003B030BD23789B0704D4237823F0010353
:105AEC002370F4E7D4E9013019690144186800F017
:105AFC0072FB0028F1D1E9E70125E8E770B583686E
:105B0C008B4204460E46154609D0FFF7CFFF08B965
:105B1C00002070BD6B070AD500232370A660227885
:105B2C0005F003052046154300F80C5BF1E76368AC
:105B3C0004F10C021868314600F0C4FA0028EBD1CD
:105B4C00E6E7837940690239994008447047012996
:105B5C0070B505460C46164602D84FF0FF3070BDA6
:105B6C00C3698B42F9D3C379202B16D181690222E8
:105B7C0001EBD41100F50C70FFF7C0FF0028ECD03E
:105B8C0004F07F0450F8243023F07043EA699A4201
:105B9C0026BF336001200020E1E7102BDDD1C1F3DB
:105BAC00072381690222194400F50C70FFF7A6FF48
:105BBC000028D2D0E4B230F81430E7E7012938B528
:105BCC000C46154601D8002038BDC3698B42FAD368
:105BDC00C379202B0FD18169032201EBD41100F57D
:105BEC000C70FFF78BFF0028EDD004F07F0440F819
:105BFC0024500120E8E7102BE5D1C1F3072381697C
:105C0C000322194400F50C70FFF778FF0028DAD056
:105C1C00E4B220F81450ECE72DE9F341C4688C424F
:105C2C0005460E46904601D3012701E00C4600279D
:105C3C00EB690134A34202D2C7B9EC68F4E7A6427F
:105C4C0014D001AA21462846FFF781FF00280DDB5E
:105C5C00EED0019B002BEBD107B1EC606FF07042E2
:105C6C0021462846FFF7AAFF074620B900273846E9
:105C7C0002B0BDE8F08116B9C8F80040F7E722463B
:105C8C0031462846FFF79AFF0028F5D1EEE773B5A9
:105C9C0005460C4601AA21462846FFF758FF061E6A
:105CAC0010DB002221462846FFF788FF50B1EB6835
:105CBC00A34224BF04F1FF34EC60019C002EE9D117
:105CCC0002B070BD0020FBE7012370B50022C36059
:105CDC004FF0FF330446C27100F12406806280F855
:105CEC002420C362C0F8340280F83022C0F8383265
:105CFC000D46B9B1042901D9002070BD11463046BA
:105D0C00FFF7FCFE0028F7D000EB051393F8AE313B
:105D1C005B06F1D105F11B0100EB0110D0F8065028
:105D2C00002DE9D0002229463046FFF7E7FE002877
:105D3C00E2D0B0F80B30B3F5007FDDD1037C022B41
:105D4C00DAD1C389002BD7D0417B21714B1E6371F3
:105D5C000023A37109260123994207D0013ECBD021
:105D6C00A2795B000132DBB2A271F5E7C18A01B9FD
:105D7C00416A2161C3892B44A361B0F811202281AF
:105D8C0003EB41032362B0F81110490101F2FF113A
:105D9C0003EB51236361B0F8132002B9026AE91ACC
:105DAC00A3791144D9404B1CE36140F6F47399423A
:105DBC0002D80C23E3719FE74FF6F473994285BF29
:105DCC00C36A236210232023E371012095E700F0BE
:105DDC00CBBA00F0AEBA000070B50E4E0D461446AC
:105DEC0000F0F2FA3368C01A0B4B984208D900F055
:105DFC00F3FA0A4B186000F07BFC00F0E5FA306017
:105E0C0000F0EAFA80B2401BA042D4BF002001206F
:105E1C0070BD00BFBCE60320A086010028E703206C
:105E2C0038B5057A04464DB9406800F06BFA6368E2
:105E3C002946187D01F06BFA0123237238BD10B589
:105E4C00037A04466BB143680121187D01F05FFAB7
:105E5C006068FF21FFF7BBFF606800F067FA002362
:105E6C00237210BDF8B504460D46164600F0B4FA80
:105E7C0087B26068FFF7ADFFFF2860720ED14FF458
:105E8C007A7239462046FFF7A7FF0028F1D0552338
:105E9C0020462370FFF7D3FF0020F8BDFE2801D069
:105EAC005023F5E760683246294600F047FA6072E5
:105EBC0008B16023ECE76068FFF78BFF6068FFF7C1
:105ECC0088FF0120E9E770B504460E4600F084FA1D
:105EDC0085B2324629462046FFF77EFF30B960680E
:105EEC00FFF777FFFF28F4D1012070BD0020FCE7FD
:105EFC00F7B5037A019204460D460BB9FFF790FFF4
:105F0C0025B14FF496712046FFF7DDFF606845F030
:105F1C004001FFF75CFF032601AFB95D6068FFF736
:105F2C0056FF013EF9D2002D60680CBF95218721E8
:105F3C00FFF74DFF6068FFF74CFF0B256068FFF71C
:105F4C0048FF0306607203D5013D15F0FF05F5D13E
:105F5C0003B0F0BD70B504460D461646372100223D
:105F6C00FFF7C6FF324629462046BDE87040FFF7D2
:105F7C00BFBF00002DE9F041002505720570857248
:105F8C004160044690461E4600F026FA41460746FC
:105F9C00606800F0BBF96368494A1D720125DA603C
:105FAC001D822046FFF73CFF63682946187D01F0EF
:105FBC00AEF90A256068FF21013DFFF708FF15F0D7
:105FCC00FF05F7D163682946187D01F0A0F90A2571
:105FDC00002211462046FFF78BFF0128804618D07F
:105FEC00013D15F0FF0507D1202320462370FFF754
:105FFC0026FF0020BDE8F0816068FD21FFF7E7FE79
:10600C004FF402786068FFF7E4FEB8F10108F9D1AB
:10601C00DEE74FF4D57208212046FFF769FF05280B
:10602C0014D184F80A800025BFB22A4629212046C3
:10603C00FFF790FF0246D8B14FF4FA62394620467A
:10604C00FFF7CAFE0028F0D04323CEE70425606892
:10605C00FFF7BFFE013D15F0FF056072F7D1AA28CE
:10606C0004D10223A3724FF08045DDE72523BCE762
:10607C00A37A022B18D13A212046FFF739FF08B139
:10608C003723B2E76068FFF7A4FE00F0C000C02819
:10609C0004BF0323A3726068FFF79BFE6068FFF7E1
:1060AC0098FE6068FFF795FE2046FFF7C8FE636810
:1060BC003079B168B2891A821872D960012099E7D7
:1060CC0090D0030038B5837A032B18BF49021546CC
:1060DC000A4611210446FFF70BFF30B13023237021
:1060EC002046FFF7ACFE00250BE029464FF400726A
:1060FC002046FFF7B7FE05460028F1D02046FFF7F3
:10610C009EFE284638BD10B5837A032B0A4618BF6D
:10611C004A0212210446FFF7EBFE30B13123204630
:10612C002370FFF78CFE002010BD0120FCE710B59A
:10613C0000220C210446FFF7DBFE30B12823204659
:10614C002370FFF77CFE002010BD2046FFF777FE82
:10615C000120F9E7F8B5044616461F46FFF7D3FFB2
:10616C0068B10025ABB29F4206EB452109D94FF42B
:10617C0000722046FFF776FE01350028F2D1002090
:10618C00F8BD2046BDE8F840FFF7D1BF38B504464E
:10619C0015464068FFF71BFE4FF4007260682946F5
:1061AC0000F0E6F86068FF21FFF711FE6068FF2140
:1061BC00FFF70DFE6068FFF70CFE607200F01F0029
:1061CC00052806D0572320462370FFF738FE002001
:1061DC0038BD0120FCE770B5837A032B18BF490248
:1061EC0015460A4618210446FFF782FE064630B1D2
:1061FC00322323702046FFF722FE00251FE02A469B
:10620C00FE212046FFF7C2FF0028F3D04FF4FA61BD
:10621C002046FFF758FE054608B95A23E9E73246EF
:10622C000D212046FFF764FE08B12923E1E76068E1
:10623C00FFF7CFFD0028F8D12046FFF700FE2846D7
:10624C0070BD13B501914FF4FA610446FFF73BFEA4
:10625C00019A30B95B2323702046FFF7F0FD002034
:10626C0005E0FC212046FFF791FF0028F4D002B096
:10627C0010BD10B5837A032B0A4618BF4A021921A8
:10628C000446FFF735FE30B1332320462370FFF769
:10629C00D6FD002010BD0120FCE738B54FF4FA61A3
:1062AC000446FFF710FE054630B9562323702046EE
:1062BC00FFF7C5FD284638BD6068FD21FFF787FD57
:1062CC00F5E7F8B5044616461F46FFF7D2FF70B146
:1062DC000025BD4206EB4521204604D0FFF7B1FF57
:1062EC0028B10135F5E7BDE8F840FFF7D6BF2046E9
:1062FC00FFF7A5FD0020F8BD014B01221A70704775
:10630C00C0E60320011D006800F058BD10B504461E
:10631C000175006800F024FD207D012100F0E6FFEE
:10632C00207D0121BDE8104000F0F1BF006800F0B5
:10633C002BBD0068FF2100F0AFBD000037B5134640
:10634C00074A00920025074C006825700A4629462A
:10635C0000F0A8FD2378002BFCD0002003B030BD4A
:10636C0005630B00C0E60320006800F095BD00003B
:10637C0037B51346064A00920025064C0068257076
:10638C002A4600F08FFD2378002BFCD003B030BDE3
:10639C0005630B00C0E6032008B5024B1B685B6C61
:1063AC00019308BD4802030008B5024B1B685B68EB
:1063BC00019308BD1802030008B5024B1B68DB688B
:1063CC00019308BD1802030008B5024B1B681B693A
:1063DC00019308BD1802030008B5024B1B685B69EA
:1063EC00019308BD1802030008B5024B1B689B689B
:1063FC00019308BD2C02030008B5024B1B68DB6837
:10640C00019308BD2C02030008B5024B1B681B69E5
:10641C00019308BD2C02030008B5024B1B68DB6816
:10642C00019308BD2802030008B5024B1B689B6949
:10643C00019308BD2802030008B5024B1B68DB69F9
:10644C00019308BD2802030008B5024B1B681B6AA8
:10645C00019308BD2802030008B5024B1B685B6A58
:10646C00019308BD2802030008B5024B1B689B6A08
:10647C00019308BD2802030008B5024B1B68DB6AB8
:10648C00019308BD2802030008B5024B1B681B6B67
:10649C00019308BD2802030008B5024B1B685B6B17
:1064AC00019308BD2802030008B5024B1B681B6C46
:1064BC00019308BD2802030008B5024B1B681B6D35
:1064CC00019308BD2802030008B5024B1B685B69E9
:1064DC00019308BD6402030008B5024B1B689B685E
:1064EC00019308BD6802030008B5024B1B68DB680A
:1064FC00019308BD6802030008B5024B1B681B68BA
:10650C00019308BD3002030008B5024B1B685B69A0
:10651C00019308BD3002030008B5024B1B68DB6910
:10652C00019308BD3002030008B5024B1B681B6ABF
:10653C00019308BD3002030008B5024B1B685B6A6F
:10654C00019308BD3002030008B5024B1B689B6A1F
:10655C00019308BD3002030008B5024B1B689B6B0E
:10656C00019308BD3002030008B5024B1B68DB6BBE
:10657C00019308BD3002030008B5024B1B681B6C6D
:10658C00019308BD3002030008B5024B1B685B6C1D
:10659C00019308BD3002030008B5024B1B68DB6891
:1065AC00019308BD3C02030008B5024B1B681B6934
:1065BC00019308BD3C02030008B5024B1B685B69E4
:1065CC00019308BD3C02030008B5024B1B689B6994
:1065DC00019308BD3C02030008B5024B1B68DB6944
:1065EC00019308BD3C02030008B5024B1B681B6AF3
:1065FC00019308BD3C02030008B5024B1B689B6A63
:10660C00019308BD3C02030008B5024B1B681B6CD0
:10661C00019308BD3C02030008B5024B1B681B68C4
:10662C00019308BD4C02030008B5024B1B685B6864
:10663C00019308BD4C02030008B5024B1B681B6993
:10664C00019308BD4C02030008B5024B1B685B6943
:10665C00019308BD4C02030008B5024B1B689B69F3
:10666C00019308BD4C02030008B5024B1B68DB69A3
:10667C00019308BD4C02030008B5024B1B681B6A52
:10668C00019308BD4C02030008B5024B1B685B6A02
:10669C00019308BD4C02030008B5024B1B685B68F4
:1066AC00019308BD2002030008B5024B1B685B690F
:1066BC00019308BD2002030008B5024B1B68DB6A7E
:1066CC00019308BD2002030008B5034B1B68D3F8E7
:1066DC008830019308BD00002002030008B5034B6D
:1066EC001B68D3F89430019308BD0000200203000E
:1066FC0008B5024B1B689B68019308BD440203005C
:10670C0008B5024B1B68DB6B019308BD4402030008
:10671C0008B5024B1B685B68019308BD400203007F
:10672C0008B5024B1B689B68019308BD400203002F
:10673C0008B5024B1B68DB68019308BD40020300DF
:10674C0008B5024B1B681B69019308BD400203008E
:10675C0008B5024B1B685B69019308BD400203003E
:10676C0008B5024B1B689B69019308BD40020300EE
:10677C0008B5024B1B68DB69019308BD400203009E
:10678C0008B5024B1B681B6A019308BD400203004D
:10679C0008B5024B1B681B6B019308BD400203003C
:1067AC0008B5024B1B685B6B019308BD40020300EC
:1067BC0008B5024B1B681B6C019308BD400203001B
:1067CC0008B5024B1B685B6C019308BD40020300CB
:1067DC0008B5024B1B681B68019308BD1C02030023
:1067EC0008B5024B1B685B68019308BD1C020300D3
:1067FC0008B5024B1B685B6A019308BD1C020300C1
:10680C0008B5024B1B681B6C019308BD1C020300EE
:10681C0008B5024B1B685B6C019308BD1C0203009E
:10682C000021FFF741BF0000024800230360FFF77F
:10683C00B3BD00BFC4E60320002240681146FFF739
:10684C009FBF002240681146FFF7AABF4068002294
:10685C00FFF79EBF4068002281F00101FFF788BF5F
:10686C00002340681A461946FFF77ABF0023406898
:10687C001A461946FFF76CBF002240681146FFF715
:10688C005FBF002240681146FFF74ABF40680022F4
:10689C000221FFF74DBF002340681A46FFF738BFAF
:1068AC00024B03225A60024A1A607047C8E6032062
:1068BC0060780B007047F8B5064615460C468F18E5
:1068CC00BC4206D0336814F8011B9B6830469847CD
:1068DC00F6E72846F8BD007C0022FFF7B5BD007C2A
:1068EC000021FFF7B9BD007C0021FFF7BDBD007C86
:1068FC000021FFF7C1BD007C0021FFF7C5BD10B51D
:10690C0014210446FDF7C3FB204610BD38B50446E0
:10691C0015464FF47A730022C4E90123094B217404
:10692C00084623602946FFF7BFFDBF3008D16B69CD
:10693C00DB0705D56868FFF753FFE868FFF750FFE2
:10694C00204638BD9C780B000023007C1A46194663
:10695C00FFF762BD7FB500221423CDE90122ADF80B
:10696C0004300B788DF808304B680393CB68049394
:10697C00007C0B7A059301A9FFF79EFD07B05DF82B
:10698C0004FB1FB5003B8DF800104FF06401039120
:10699C0018BF0123694601928DF80830FFF7DAFF22
:1069AC0005B05DF804FB0123FFF7EBBF007C002270
:1069BC00FFF73ABDC9B2FFF7F9BF007C0022FFF721
:1069CC003BBD0121FFF7F9BF704710B518210446F4
:1069DC00FDF75DFB204610BDF0B5037D062B8DB099
:1069EC000E4600F104074FF0000412D000F1080528
:1069FC0015F8011D0A22304600F04DF9AF4204444F
:106A0C0019D0002CF4D02E21304600F029F9044482
:106A1C00EEE72F236A4639460A208DF80040FFF72F
:106A2C0053FD684600F068FD33680246DB68694632
:106A3C0030469847044620460DB0F0BD10B5054BC6
:106A4C000446112240F8043B002100F01FFD2046B3
:106A5C0010BD00BFC4780B000346074A10B543F8BD
:106A6C00042B01F1100251F8044B43F8044B9142F2
:106A7C00F9D10A781A7010BDC4780B0010B59DF8C6
:106A8C00084044EA032343EA024242EA0161042338
:106A9C004160037510BD000007B5064B0360CB7851
:106AAC0000938B784A780978FFF7E8FF03B05DF81C
:106ABC0004FB00BFC4780B00014B024A1A607047FC
:106ACC00D0E60320D0780B00002340681A46FFF76D
:106ADC001FBE406800220221FFF72ABE0022406838
:106AEC001146FFF71DBE002240681146FFF728BE75
:106AFC00002340681A461946FFF72ABE0023406857
:106B0C001A461946FFF72CBE40680021FFF750BE0D
:106B1C0040680021FFF754BE4068002281F001015B
:106B2C00FFF726BE40680022FFF732BE0022406805
:106B3C001146FFF735BE002240681146FFF720BE14
:106B4C002DE9F04395B014460D460746FFF776FF46
:106B5C0000211C220DA8009100F098FC40230C93FE
:106B6C0020466B460CAA0021FFF7BEFC0446002809
:106B7C004BD1024601216868FFF7E2FD02218046F5
:106B8C0022466868FFF7DCFD009E81462146002EF8
:106B9C003BD0002939D17368022B03D00A2B11D0BA
:106BAC00F669F4E7B8F1000FFAD0716906A8043160
:106BBC0007ADFFF771FF0FCD3C1D0FC42B68237081
:106BCC004146EDE7B9F1000FEAD07469102201A833
:106BDC0000F05CFC06238DF8143001AD04F10803C1
:106BEC001834186859682A4603C20833A34215465C
:106BFC00F7D101A906A807ADFFF72EFF0FCD3C1D5D
:106C0C000FC42B6823704946CAE70098FFF764FC51
:106C1C00384615B0BDE8F083024B034A1A600022D7
:106C2C005A607047D4E60320DC780B00F8B50646B2
:106C3C000D468F180024BD420CD0336815F8011B8B
:106C4C009B6830469847031E01DB1C44F3E7002C7D
:106C5C0008BF1C462046F8BD08B5FEF715FF08BD59
:106C6C0003689B68184738B50D210546FFF7F8FFF8
:106C7C000A2104462846FFF7F3FF204438BD38B5F7
:106C8C000546FEF701FF04462846FFF7ECFF2044BB
:106C9C0038BDFFF7F4BF30B58BB00023012A8DF857
:106CAC00243098BF0A2209AC0D46B1FBF2F101FB6E
:106CBC00125303F0FF03092B94BF30333733DBB28D
:106CCC00AA4204F8013DEFD92146FEF7DDFE0BB0D8
:106CDC0030BD2DE9F04186B000AF05460E46381D9B
:106CEC00142114463B60FFF783FD13280ED8391D81
:106CFC002846FEF7C9FE04461EB12846FFF7B3FF2F
:106D0C00044420461837BD46BDE8F08100F1080365
:106D1C0023F00703E846ADEB030D2246411C3B680C
:106D2C006846FFF765FD69462846FEF7ADFE04464A
:106D3C00C546E1E7014B00229A607047DCE6032070
:106D4C000021FFF721BC0021FFF716BC10B504464B
:106D5C0008462170FFF7E0FB00236360204610BD5E
:106D6C0013B504460078FFF7EEFF58B92078019070
:106D7C004FF6FF71FFF7C0FB019802B0BDE8104061
:106D8C00FFF7DEBF02B010BD0078FFF7D9BF0000DF
:106D9C00400830B51860002418688842E5B206D95E
:106DAC000134082C02D040081860F5E70725024B87
:106DBC005B5D137030BD00BF10790B002DE9F04303
:106DCC0006468FB000780C46FFF7BDFF00281BDB92
:106DDC0035781422002109A800F058FB0B2300225F
:106DEC0009A92846ADF82430FFF7A6FB9DF82D30F5
:106DFC0013B19DF82C5055B10027B946B846012562
:106E0C0023795DB1C3B100200FB0BDE8F083DDF88C
:106E1C0030809DF834909DF83570F1E7002B35D11A
:106E2C00A368434508D18DF820908DF82170BDF8EA
:106E3C002020A3899A42E6D00023A1688DF80F3058
:106E4C000A9804AB0DF10F02FFF7A2FF217985B967
:106E5C0089B9A36843450ED38DF820908DF8217025
:106E6C00BDF82020A3899A4205D1049B434502D149
:106E7C00C9E70029F9D100230193637B00939DF8A6
:106E8C000F20237B3078FFF76FFBBCE7CDE9005573
:106E9C002B462A460121F5E708B50078FFF734FBAD
:106EAC00C0B208BD30B587B004460A9D0095007885
:106EBC00FFF74AFB3DB9207802A9FFF74DFB9DF87F
:106ECC001430DB07F7D407B030BD0000054B0222AD
:106EDC001A60054B054A9A600020C3E90000FFF7D1
:106EEC00DBBB00BFF8E60320ECE603200000FFFF4D
:106EFC00024B1A68024B1A60704700BF48E103202E
:106F0C00FCE6032070474174704708B5007CFFF71E
:106F1C0073FB20EAE07008BD08B5007CFFF744FB6A
:106F2C0020EAE07008BD08B5007CFFF74DFB40EA95
:106F3C00E07008BD08B5007CFFF73EFB40EAE0704E
:106F4C0008BD007CFFF748BB37B5457C04462DB126
:106F5C00207C03B0BDE83040FFF71EBB007C0191E4
:106F6C00FFF74AFB00280199F2DC284603B030BD3C
:106F7C0010B514210446FDF78AF8204610BD000018
:106F8C0010B54FF47A730446084611460022C4E942
:106F9C000123044B2360012320746374FFF734FB3B
:106FAC00204610BD3C790B00417470477047704708
:106FBC0008B50021007CFFF74FFB40EAE07008BDEC
:106FCC0008B50121007CFFF747FB40EAE07008BDE3
:106FDC0008B5007CFFF738FB20EAE07008BD08B567
:106FEC00007CFFF729FB20EAE07008BD13B50446CE
:106FFC00007C0191FFF728FB0028019901DC607CE3
:10700C0020B1207CFFF730FB20EAE07002B010BD0D
:10701C00007CFFF731BB10B514210446FDF737F89F
:10702C00204610BD10B54FF47A7304460846002173
:10703C00C4E90113044B23600123207463741146CB
:10704C00FFF7EAFA204610BD6C790B00007C002299
:10705C00FFF7EABA007CFFF717BBFFF7FBBF10B5D1
:10706C0014220446002100F011FA204610BD000045
:10707C0010B50F4C88B003A8FFF7F1FF2178BFF3D0
:10708C005B8F11F001010FD120460191FDF701F842
:10709C00019948B103AA0748FFF7C4FF2046FCF743
:1070AC00FDFF054800F0CEF9024808B010BD00BF46
:1070BC0000E7032004E70320B96F0B0000224068AF
:1070CC001146FFF73DBB002240681146FFF758BB45
:1070DC00002240681146FFF763BB40680022FFF7AF
:1070EC0057BB4068002281F00101FFF741BB002330
:1070FC0040681A461946FFF733BB002340681A460E
:10710C001946FFF725BB002240681146FFF708BB64
:10711C00406800220221FFF70BBB002340681A468F
:10712C00FFF7F6BA024B04225A60024A1A60704703
:10713C0018E703209C790B00014B1860704700BFC7
:10714C004CE1032008B50B4B43B1FFF791FF0368EB
:10715C001B699847002801DDAFF30080064B43B153
:10716C0000F04AF903681B699847002801DDAFF36A
:10717C00008008BD000000000000000008B5FFF70B
:10718C00E1FFFFF729F9014B186008BD28E7032040
:10719C000548064A064908B5121A00F069F9054B6C
:1071AC00054A1A6008BD00BF00F4032004F4032054
:1071BC00947A0B0000F403201E1C279A07B50023B9
:1071CC0000931A466FF07701FFF788FA03B05DF869
:1071DC0004FB000007B543880A2B08D0502B0BD1B9
:1071EC00094B1B684BB103B05DF804EB1847FFF774
:1071FC00E5FF03B05DF804FB002300931A466FF023
:10720C007701FFF76BFAF4E724E7032010B5124877
:10721C000021FFF7FDFA114B1A68114B9A42114BE2
:10722C000CBF012200221A7001D0FFF7B1FFFFF74B
:10723C00BBF8044600F032F90B4B13B12046AFF308
:10724C00008000210848FFF75BFABDE810400748B2
:10725C000021FFF739BA00BF45710B0000F4032081
:10726C001E1C279A20E7032000000000E1710B0090
:10727C00232813B502D9002002B010BDA0F10B03D6
:10728C00022B1AD8174C2178BFF35B8F11F0010138
:10729C000BD120460191FCF7FCFE019928B1124854
:1072AC00FFF754FD2046FCF7F9FE0F4B1878FFF75B
:1072BC003BF90028DFD10120DEE7012809D800F0D6
:1072CC005BF80021007CFFF7E7F880F00100C0B20A
:1072DC00D2E709380128EED800F08EF8007CFFF7D1
:1072EC0083F9F2E7B4E10320B8E10320232838B591
:1072FC0004460D460AD8FF2908D0FFF7B9FF28B17C
:10730C0029462046BDE83840FFF76EB838BD38B581
:10731C0004460D46FFF770F8FF2810D0062804D855
:10732C004D2323FA00F0C30709D42046FFF7A0FF32
:10733C0028B129462046BDE83840FFF765B838BD6E
:10734C007047000038B50A4B0360012304464361C3
:10735C000849202000F074F8202560600549A560DC
:10736C00284600F06DF8C4E90305204638BD00BF7F
:10737C0018000100D0790B0030B50E4D2978BFF301
:10738C005B8F11F0010487B011D12846FCF781FE08
:10739C0068B16846FFF7D6FF6A4621460648FFF7F4
:1073AC00B5FA2846FCF77AFE044800F04BF8024880
:1073BC0007B030BD2CE7032030E703204D730B00E2
:1073CC007047000038B5044614252A46002100F009
:1073DC005DF825804025074925812846258200F047
:1073EC002FF804496060284600F02AF8E060204637
:1073FC0038BD00BFD0790B0030B50E4D2978BFF3E6
:10740C005B8F11F0010487B011D12846FCF741FEC7
:10741C0068B101A8FFF7D6FF01AA21460648FFF77D
:10742C00AFFD2846FCF73AFE044800F00BF8024882
:10743C0007B030BD44E7032048E70320CD730B00B1
:10744C00FCF723BE002301461A46184600F05CB830
:10745C0010B501390244904201D1002005E00378B7
:10746C0011F8014FA34201D0181B10BD0130F2E7F7
:10747C000A44914200F1FF3300D1704710B511F866
:10748C00014B03F8014F9142F9D110BD0244034660
:10749C00934200D1704703F8011BF9E738B5104B44
:1074AC001D68AB6B0446B3B91820FFF791F902467F
:1074BC00A86320B90B4B0C484221FFF7A1F90B49EB
:1074CC000B4BC0E900130B4B83600B238381002112
:1074DC000120C2E90401AB6B00221C615A6138BD6A
:1074EC004CE10320D1790B00E8790B000E33CDABC6
:1074FC0034126DE6ECDE0500034613F8012B002A6E
:10750C00FBD1181A013870472DE9F843DFF8B88021
:10751C000646D8F800001F460D46914600F056F876
:10752C00254B1C6834B9254C1C60254B13B11B68CA
:10753C00C4F8883063681F2B07DDD8F8000000F012
:10754C0047F84FF0FF30BDE8F8834EB3D4F888000D
:10755C0088B91C4B23B9D8F8000000F038F8F0E7D4
:10756C004FF48470FFF734F90028F4D00023C0E9FD
:10757C004033C4F88800636840F8239001229A4095
:10758C0000EB8301D0F800311343C0F80031022E18
:10759C00C1F8807002BFD0F804311343C0F8043135
:1075AC006368D8F800005A1C0233626044F8235018
:1075BC0000F00EF80020C6E7E8E703205CE70320A4
:1075CC0000000000DD670B00B0E10320704770473E
:1075DC00704700001D400B0059400B0081400B0010
:1075EC0085400B000000000064656661756C7420BA
:1075FC00004D5342004C5342003C53504953657468
:10760C0074696E67732064656661756C743E003CCA
:10761C0053504953657474696E67732025732575CF
:10762C00202573204D4F444525753E00436F756CE6
:10763C0064206E6F742066696E6420415337333456
:10764C003100436F756C646E27742066696E64201C
:10765C0052544300525443206973204E4F542072AD
:10766C00756E6E696E672100415739353233206E65
:10767C006F7420666F756E643F20436865636B2082
:10768C00776972696E67210041573935323320664C
:10769C006F756E642100325F31355F32345F373085
:1076AC00306D735F313238785F7468726F756768EC
:1076BC005F686F6C655F64696C7574696F6E732E4F
:1076CC00637376004461746520616E642054696D47
:1076DC00652C41535445502C4154494D452C474140
:1076EC00494E2C4C4544205374617475732C4C4595
:1076FC004420496E74656E736974792C5465737487
:10770C002C5365636F6E64732C4D696C6C69736577
:10771C00636F6E64732C547970652C46312028424B
:10772C0061736963292C463220284261736963298D
:10773C002C463320284261736963292C4634202857
:10774C004261736963292C46352028426173696351
:10775C00292C463620284261736963292C46372030
:10776C00284261736963292C463820284261736969
:10777C0063292C436C65617220284261736963290B
:10778C002C4E495220284261736963292C5479701C
:10779C00652C46312028526177292C4632202852FC
:1077AC006177292C46332028526177292C463420C6
:1077BC0028526177292C46352028526177292C468E
:1077CC00362028526177292C463720285261772998
:1077DC002C46382028526177292C436C6561722025
:1077EC0028526177292C4E49522028526177290062
:1077FC004572726F72206F70656E696E6720666974
:10780C006C652100000000000000000051410B00DD
:10781C00AF400B00CD400B0000000000000000004A
:10782C00CB400B00DB400B001B410B0015410B0048
:10783C00B1400B00F5400B00EF400B00E9400B0092
:10784C00000000000000000099450B000000000043
:10785C0000000000A3680B0099680B008F680B00F8
:10786C0085680B0079680B006D680B00156B0B00BD
:10787C001D6B0B0061680B0059680B004F680B0007
:10788C0045680B004D6B0B00000000000000000071
:10789C00C1680B000B690B00E3680B00C3680B009D
:1078AC00EB680B00F3680B00FB680B0003690B0023
:1078BC000000000000000000E5690B00D5690B001A
:1078CC00D7690B0061707000000000000000000020
:1078DC00D56A0B00DF6A0B00E96A0B00F36A0B0038
:1078EC00FD6A0B00096B0B00156B0B001D6B0B007D
:1078FC00256B0B00316B0B00396B0B00436B0B00D2
:10790C004D6B0B00000810182028303825592D25F8
:10791C006D2D25645425483A254D3A2553257A007A
:10792C0061736374696D6500000000000000000065
:10793C00116F0B007D6F0B00556F0B00396C0B003A
:10794C00256F0B00416F0B00336F0B004F6F0B005B
:10795C00136F0B00176F0B000000000000000000FD
:10796C00BB6F0B0023700B00F96F0B00396C0B0015
:10797C00EB6F0B00BD6F0B00CD6F0B001D700B0080
:10798C00DD6F0B00B56F0B00000000000000000065
:10799C0027710B001D710B0013710B00C9700B00CC
:1079AC0007710B00FB700B00156B0B001D6B0B00B4
:1079BC00EF700B00E7700B00DD700B00D3700B0049
:1079CC004D6B0B00005245454E54206D616C6C6F35
:1079DC006320737563636565646564002F746D70F3
:1079EC002F6A656E6B696E732D4743432D31302DB5
:1079FC00706970656C696E652D34385F3230323069
:107A0C00313132345F313630363138303633392F0C
:107A1C007372632F6E65776C69622F6E65776C6914
:107A2C00622F6C6962632F7374646C69622F72616C
:107A3C006E642E630000000059440B0035680B0087
:107A4C00AD680B00C56A0B00256C0B00416D0B007B
:107A5C00D96E0B00FD6E0B0031710B0000000000A5
:047A6C000000000016
:107A7000040000001400000003000000474E550001
:107A8000D142440F632572EDB8ED26E9B02177C9E4
:047A900068552C0801
:047A940000000000EE
:107A98002C790B0050E103200000000000000000DA
:107AA80000000000000000000000000000000000CE
:107AB80000000000000000000000000000000000BE
:107AC80000000000000000000000000000000000AE
:107AD800000000000000000000000000000000009E
:107AE800000000000000000000000000000000008E
:0C7AF8000000000000000000ECE703208C
:107B0400FFFFFFFF00000102030405060708090A3E
:107B14000B0C0D0E0F101112131415161718191A39
:087B24001B1C1D1E1F20280080
:047B2C007856341241
:04000003B000401CED
:00000001FF
