:02000002B0004C
:1040000000400B00FE960B00000006000C000502AD
:084010000401D41700000000B8
:04401800948F0B0076
:1040200081F0004102E000BF83F0004330B54FEA69
:1040300041044FEA430594EA050F08BF90EA020FD6
:104040001FBF54EA000C55EA020C7FEA645C7FEA69
:10405000655C00F0E2804FEA5454D4EB5555B8BF8C
:104060006D420CDD2C4480EA020281EA030382EAFD
:10407000000083EA010180EA020281EA0303362D8F
:1040800088BF30BD11F0004F4FEA01314FF4801C62
:104090004CEA113102D0404261EB410113F0004F74
:1040A0004FEA03334CEA133302D0524263EB43032B
:1040B00094EA050F00F0A780A4F10104D5F1200EC9
:1040C0000DDB02FA0EFC22FA05F2801841F1000124
:1040D00003FA0EF2801843FA05F359410EE0A5F1F8
:1040E00020050EF1200E012A03FA0EFC28BF4CF029
:1040F000020C43FA05F3C01851EBE37101F00045DF
:1041000007D54FF0000EDCF1000C7EEB00006EEBEB
:104110000101B1F5801F1BD3B1F5001F0CD3490875
:104120005FEA30004FEA3C0C04F101044FEA4452CC
:1041300012F5800F80F09A80BCF1004F08BF5FEA53
:10414000500C50F1000041EB045141EA050130BD33
:104150005FEA4C0C404141EB0101013C28BFB1F545
:10416000801FE9D291F0000F04BF01460020B1FA90
:1041700081F308BF2033A3F10B03B3F120020CDA63
:104180000C3208DD02F1140CC2F10C0201FA0CF041
:1041900021FA02F10CE002F11402D8BFC2F1200CA6
:1041A00001FA02F120FA0CFCDCBF41EA0C0190405C
:1041B000E41AA2BF01EB0451294330BD6FEA0404A5
:1041C0001F3C1CDA0C340EDC04F11404C4F1200290
:1041D00020FA04F001FA02F340EA030021FA04F3A2
:1041E00045EA030130BDC4F10C04C4F1200220FAF9
:1041F00002F001FA04F340EA0300294630BD21FA37
:1042000004F0294630BD94F0000F83F4801306BFFC
:1042100081F480110134013D4EE77FEA645C18BFF0
:104220007FEA655C29D094EA050F08BF90EA020F87
:1042300005D054EA000C04BF1946104630BD91EA7F
:10424000030F1EBF0021002030BD5FEA545C05D182
:104250004000494128BF41F0004130BD14F58004C1
:104260003CBF01F5801130BD01F0004545F0FE4135
:1042700041F470014FF0000030BD7FEA645C1ABF6A
:10428000194610467FEA655C1CBF0B46024650EAA1
:10429000013406BF52EA033591EA030F41F40021CD
:1042A00030BD00BF90F0000F04BF0021704730B553
:1042B0004FF4806404F132044FF000054FF0000128
:1042C00050E700BF90F0000F04BF0021704730B5E9
:1042D0004FF4806404F1320410F0004548BF4042BE
:1042E0004FF000013EE700BF42004FEAE2014FEA13
:1042F00031014FEA02701FBF12F07F4393F07F4FEE
:1043000081F06051704732F07F4208BF704793F0F0
:104310007F4F04BF41F40021704730B54FF4607403
:1043200001F0004521F000411CE700BF50EA010206
:1043300008BF704730B54FF000050AE050EA0102AF
:1043400008BF704730B511F0004502D5404261EB1F
:1043500041014FF4806404F132045FEA915C3FF460
:10436000D8AE4FF003025FEADC0C18BF03325FEAFD
:10437000DC0C18BF033202EBDC02C2F1200300FAAE
:1043800003FC20FA02F001FA03FE40EA0E0021FAD3
:1043900002F11444BDE600BF70B54FF0FF0C4CF4C1
:1043A000E06C1CEA11541DBF1CEA135594EA0C0F73
:1043B00095EA0C0F00F0DEF82C4481EA030621EAAE
:1043C0004C5123EA4C5350EA013518BF52EA0335E9
:1043D00041F4801143F4801338D0A0FB02CE4FF09B
:1043E0000005E1FB02E506F00042E0FB03E54FF0CB
:1043F0000006E1FB03569CF0000F18BF4EF0010EC3
:10440000A4F1FF04B6F5007F64F5407404D25FEABE
:104410004E0E6D4146EB060642EAC62141EA555171
:104420004FEAC52040EA5E504FEACE2EB4F1FD0CB3
:1044300088BFBCF5E06F1ED8BEF1004F08BF5FEA31
:10444000500E50F1000041EB045170BD06F00046E3
:1044500046EA010140EA020081EA0301B4EB5C0490
:10446000C2BFD4EB0C0541EA045170BD41F4801188
:104470004FF0000E013C00F3AB8014F1360FDEBFAD
:10448000002001F0004170BDC4F10004203C35DA89
:104490000C341BDC04F11404C4F1200500FA05F30C
:1044A00020FA04F001FA05F240EA020001F00042AD
:1044B00021F0004110EBD37021FA04F642EB060123
:1044C0005EEA430E08BF20EAD37070BDC4F10C044D
:1044D000C4F1200500FA04F320FA05F001FA04F211
:1044E00040EA020001F0004110EBD37041F10001FD
:1044F0005EEA430E08BF20EAD37070BDC4F1200508
:1045000000FA05F24EEA020E20FA04F301FA05F26F
:1045100043EA020321FA04F001F0004121FA04F217
:1045200020EA020000EBD3705EEA430E08BF20EAE7
:10453000D37070BD94F0000F0FD101F00046400021
:1045400041EB010111F4801F08BF013CF7D041EAA3
:10455000060195F0000F18BF704703F000465200A7
:1045600043EB030313F4801F08BF013DF7D043EA78
:104570000603704794EA0C0F0CEA135518BF95EA2E
:104580000C0F0CD050EA410618BF52EA4306D1D1B5
:1045900081EA030101F000414FF0000070BD50EAD4
:1045A000410606BF1046194652EA430619D094EA5E
:1045B0000C0F02D150EA013613D195EA0C0F05D148
:1045C00052EA03361CBF104619460AD181EA03019C
:1045D00001F0004141F0FE4141F470014FF0000054
:1045E00070BD41F0FE4141F4780170BD70B54FF0EF
:1045F000FF0C4CF4E06C1CEA11541DBF1CEA13556F
:1046000094EA0C0F95EA0C0F00F0A7F8A4EB050450
:1046100081EA030E52EA03354FEA013100F0888047
:104620004FEA03334FF0805545EA131343EA126310
:104630004FEA022245EA111545EA10654FEA0026C5
:104640000EF000419D4208BF964244F1FD0404F57E
:10465000407402D25B084FEA3202B61A65EB0305DA
:104660005B084FEA32024FF480104FF4002CB6EB97
:10467000020E75EB030E22BFB61A754640EA0C0017
:104680005B084FEA3202B6EB020E75EB030E22BF57
:10469000B61A754640EA5C005B084FEA3202B6EB98
:1046A000020E75EB030E22BFB61A754640EA9C0057
:1046B0005B084FEA3202B6EB020E75EB030E22BF27
:1046C000B61A754640EADC0055EA060E18D04FEAE5
:1046D000051545EA16754FEA06164FEAC30343EA85
:1046E00052734FEAC2025FEA1C1CC0D111F4801F52
:1046F0000BD141EA00014FF000004FF0004CB6E74B
:1047000011F4801F04BF01430020B4F1FD0C88BFE9
:10471000BCF5E06F3FF6AFAEB5EB030C04BFB6EBF4
:10472000020C5FEA500C50F1000041EB045170BDE7
:104730000EF0004E4EEA113114EB5C04C2BFD4EB14
:104740000C0541EA045170BD41F480114FF0000E98
:10475000013C90E645EA060E8DE60CEA135594EA14
:104760000C0F08BF95EA0C0F3FF43BAF94EA0C0F17
:104770000AD150EA01347FF434AF95EA0C0F7FF48C
:1047800025AF104619462CE795EA0C0F06D152EAE0
:1047900003353FF4FDAE1046194622E750EA4106C4
:1047A00018BF52EA43067FF4C5AE50EA41047FF4D5
:1047B0000DAF52EA43057FF4EBAE12E74FF0FF3C3A
:1047C00006E000BF4FF0010C02E000BF4FF0010C0B
:1047D0004DF804CD4FEA410C7FEA6C5C4FEA430C84
:1047E00018BF7FEA6C5C1BD001B050EA410C0CBFD3
:1047F00052EA430C91EA030F02BF90EA020F002035
:10480000704710F1000F91EA030F58BF994208BF9B
:1048100090422CBFD8176FEAE37040F00100704758
:104820004FEA410C7FEA6C5C02D150EA013C07D1AF
:104830004FEA430C7FEA6C5CD6D152EA033CD3D0FA
:104840005DF8040B704700BF8446104662468C46F4
:104850001946634600E000BF01B5FFF7B7FF002827
:1048600048BF10F1000F01BD4DF808EDFFF7F4FF50
:104870000CBF012000205DF808FB00BF4DF808EDDB
:10488000FFF7EAFF34BF012000205DF808FB00BFFE
:104890004DF808EDFFF7E0FF94BF012000205DF820
:1048A00008FB00BF4DF808EDFFF7CEFF94BF0120D5
:1048B00000205DF808FB00BF4DF808EDFFF7C4FFCE
:1048C00034BF012000205DF808FB00BF4FEA410C17
:1048D0007FEA6C5C02D150EA013C0AD14FEA430CFA
:1048E0007FEA6C5C02D152EA033C02D14FF0000037
:1048F00070474FF0010070474FEA410212F5001275
:1049000015D211D56FF47873B3EB625212D94FEA16
:10491000C12343F0004343EA505311F0004F23FA00
:1049200002F018BF404270474FF00000704750EA55
:10493000013005D111F0004008BF6FF00040704712
:104940004FF00000704700BF4A0011D212F500126C
:1049500011D20DD56FF47873B3EB62520ED44FEAD7
:10496000C12343F0004343EA505323FA02F0704757
:104970004FF00000704750EA013002D14FF0FF3095
:1049800070474FF0000070474FEA4102B2F1E04338
:1049900024BFB3F5001CDCF1FE5C0DD901F0004C26
:1049A0004FEAC0024CEA5070B2F1004F40EB830076
:1049B00008BF20F00100704711F0804F21D113F1A2
:1049C0003872BCBF01F00040704741F480114FEADB
:1049D0005252C2F11802C2F1200C10FA0CF320FA64
:1049E00002F018BF40F001004FEAC1234FEAD32381
:1049F00003FA0CFC40EA0C0023FA02F34FEA4303EB
:104A0000CCE77FEA625307D150EA01331EBF4FF073
:104A1000FE4040F44000704701F0004040F0FE408E
:104A200040F40000704700BF034613F8012B002A32
:104A3000FBD1181A0138704709480A49884208B55D
:104A400005D0094A824202D0121A04F0F9F9074847
:104A5000074A0021121A04F001FA014808BD00BFFC
:104A6000F8E003200C960B00BCE10320BCE103201E
:104A7000FCE7032070B5074E074C04F0AFF8A41B09
:104A8000A4080025AC4200D170BD56F8043B9847FD
:104A90000135F7E7C4950B00E8950B0000F060B90D
:104AA00008B500F0EFFDBDE8084004F04FB803F092
:104AB00033BB03F031BB03F037BB0078B0FA80F0B2
:104AC000400970470123037070477047037C13F05F
:104AD00008031EBFC36A406A1B1A002BACBF1846EE
:104AE0006FF000407047704710B510210446FFF783
:104AF000E2FF204610BD10B534210446FFF7DBFF6E
:104B0000204610BD103001F0F5BF103001F013BF8A
:104B100007B501220DF10701103001F05EFE0128FA
:104B20000CBF9DF807004FF0FF3003B05DF804FBA9
:104B3000103002F069B807B501228DF80710103067
:104B40000DF1070102F060F803B05DF804FB10B44A
:104B50002AB902685DF8044B9268C9B210475DF843
:104B6000044BD2B203F055BD2DE9F84F82462DED2E
:104B7000028B10EE100AB0EE408A8B46FFF7B4FBB2
:104B800002460B4604460D4606460F46FFF79EFEBC
:104B900038B14E49BDEC028B5046BDE8F84F03F0EA
:104BA00019BD25F000494A4B4FF0FF3220464946D7
:104BB000FFF78CFE48B9464B4FF0FF32204649467E
:104BC000FFF766FE08B94349E4E7DFED437AB4EE48
:104BD000E78AF1EE10FA01DD4049DBE7DFED407ACC
:104BE000B4EEE78AF1EE10FAF6D4B5EEC08AF1EE33
:104BF00010FA06D52D21504603F0F0FC264605F1AB
:104C000000473849384D5FFA8BF84FF00009002013
:104C100000245FFA89F3984506D922462B46FFF710
:104C2000E5FC09F10109F4E732463B46FFF7FEF9DE
:104C30000D460446FFF788FE0646FFF733FB0246A3
:104C40000B4620462946FFF7EFF90A2204460D4697
:104C50005046314603F0DDFCB8F1000F31D0234956
:104C6000214F504603F0B6FC0026B8F1000F28D0C3
:104C700032463B4620462946FFF78EFB04460D464A
:104C8000FFF73AFEB0F1000919DA2D21504603F082
:104C9000A5FCC9F100010A22504603F0BAFC4846BF
:104CA000FFF710FB02460B4620462946FFF7BCF9EA
:104CB00008F1FF3804460D465FFA88F8D5E7494603
:104CC000E9E7BDEC028BBDE8F88F00BFA88F0B00B1
:104CD000FFFFEF7FAC8F0B00FFFF7F4FB08F0B000C
:104CE000FFFF7FCF0000E03F00002440B48F0B00A7
:104CF0000EB403B503AB002153F8042B019303F06A
:104D0000A6FC02B05DF804EB03B0704773B504462F
:104D100008462279A36832B1A3B90B4902B0BDE8B5
:104D2000704003F057BC094A267B094D0949647B52
:104D3000012E18BF2946CDE900140749FFF7D8FF17
:104D400002B070BD054AEFE7C78F0B00F3910B006F
:104D5000C38F0B00BF8F0B00DD8F0B00B68F0B00D6
:104D6000F0B58FB003F06CFE4FF4165103F056FE11
:104D700003F066FE03F059FE18B9012003F0F4F9C0
:104D8000F6E703F0E1FF002302463921524800F024
:104D900043FD40B903F054FE504903F02EFC0A20B5
:104DA00003F0E2F9FBE7FF214B4800F00DFE40F273
:104DB000E731494800F02DFE4748082100F050FE39
:104DC000474801F0F1FB28B903F03AFE454903F0EA
:104DD00014FCFEE7424801F0E9FB20B903F030FE85
:104DE000414903F00AFC03F0AFFF582102463F4857
:104DF00001F098F840B903F023FE3D4903F0FDFBB4
:104E00000A2003F0B1F9FBE703F01AFE39493A4CE6
:104E1000364E03F0F2FB002514F8011B0322304646
:104E2000013501F024F8052DF6D1344B344C0193B3
:104E300000238DF8083004F58C67324B039301266C
:104E400001AB2A4604F26C413846ADF8106002F01E
:104E500025FDF8B1276004F23C4001F081FE3146A7
:104E6000204602F0C5FB04F23C45014668B12449E6
:104E700001F23C4001F0ABFC60B194F83C3413F01B
:104E8000700F1CBF204B1D6004E0204602F0B0FBF9
:104E90000028ECD100234FF47A72CDE90232059359
:104EA0001A4B01931A4A1B4944F2022305A801F048
:104EB0005EFE9DF8143043B1174901A803F09DFB35
:104EC00005A801F04DFE0FB0F0BD03F0B9FD134988
:104ED00003F09DFBF7E700BF5CE60320FA8F0B00B1
:104EE000BCE6032010900B0022900B0084E6032008
:104EF00036900B0056900B005C930B0024930B0034
:104F0000CCE1032080F0FA02C4E6032038930B00C2
:104F100064900B0008E6032092900B00BE910B00FA
:104F20002DE9F743DFF85090DFF85080104F054629
:104F30000E460024B44218DA19F8053098F800201B
:104F400001931946384600F06BFF4FF4FA7003F0F6
:104F50000BF9084B01991A78384600F061FF4FF4BD
:104F6000FA7003F001F90134E4E703B0BDE8F0831F
:104F700084E60320C8E103205C930B00F8E00320E3
:104F80002DE9F84F06460F4602F0BAFEDFF83C90D6
:104F9000DFF83C80054602F0B3FE401BB84213D256
:104FA000DFF830A0DFF830B00024A6420CBF9BF839
:104FB000002099F800201AF8011B4046013400F047
:104FC0002FFF052CF1D1E6E7BDE8F88FC8E10320FB
:104FD00084E603205C930B00F8E00320F0B5A3B057
:104FE00000234FF47A72CDE9163219930C4B0D4A17
:104FF000159300F23C4144F2022319A801F0B7FDD9
:1050000001A801F0F4FA084803A900F096FE78B967
:1050100003F016FD054903F0F0FA23B0F0BD00BF20
:1050200038930B0064900B005CE60320D2910B00D8
:10503000CB4F03AD09AEFC24012C05D92988384695
:1050400000F036FD86ED000A0134E4B2082C05F1CB
:10505000020506F10406EFD19DF86430002B00F044
:1050600091819DF804100A2215A801F5FA61FFF755
:105070006EFD2F2115A803F0B1FA9DF805100A2244
:1050800015A803F0C6FA2F2115A803F0A7FA0A22E3
:105090009DF8061015A803F0BCFAB24915A803F054
:1050A00099FA01A801F06AFAAF4900B200EB40009A
:1050B00001EB800115A803F08DFAAC4915A803F0A7
:1050C00089FA9DF807100A2215A803F0A2FA3A21DE
:1050D00015A803F083FA9DF808100A2215A803F01A
:1050E00098FA3A2115A803F079FA0A229DF80910D6
:1050F00015A803F08EFA2C2115A803F06FFA984832
:1051000000F09BFC0A22014615A8FFF720FD2C2188
:1051100015A803F063FA924800F069FC0A220146E0
:1051200015A803F076FA2C2115A803F057FA8C483D
:1051300000F0A9FC0A22014615A803F06AFA2C2106
:1051400015A803F04BFA8A4915A803F043FA2C215D
:1051500015A803F043FA874915A803F03BFA2C2160
:1051600015A803F03BFA844915A803F033FA2C2163
:1051700015A803F033FA02F0C3FD0A224FF47A7146
:10518000B0FBF1F115A803F044FA2C2115A803F0A7
:1051900025FA02F0B5FD0A22014615A803F039FAF6
:1051A0002C2115A803F01AFA744915A803F012FA75
:1051B0002C2115A803F012FA9DED090A15A8022169
:1051C000FFF7D2FC2C2115A803F008FA9DED0A0A7E
:1051D00015A80221FFF7C8FC2C2115A803F0FEF941
:1051E0009DED0B0A15A80221FFF7BEFC2C2115A886
:1051F00003F0F4F99DED0C0A15A80221FFF7B4FCA9
:105200002C2115A803F0EAF99DED0F0A15A802213B
:10521000FFF7AAFC2C2115A803F0E0F99DED100A78
:1052200015A80221FFF7A0FC2C2115A803F0D6F940
:105230009DED110A15A80221FFF796FC2C2115A857
:1052400003F0CCF99DED120A15A80221FFF78CFCA2
:105250002C2115A803F0C2F99DED130A15A802210F
:10526000FFF782FC2C2115A803F0B8F99DED140A74
:1052700015A80221FFF778FC2C2115A803F0AEF940
:105280003F4915A803F0A6F92C2115A803F0A6F9AB
:10529000BDF80C100A2215A8FFF759FC2C2115A8FF
:1052A00003F09CF9BDF80E100A2215A8FFF74FFC79
:1052B0002C2115A803F092F9BDF810100A2215A8A8
:1052C000FFF745FC2C2115A803F088F9BDF8121052
:1052D0000A2215A8FFF73BFC2C2115A803F07EF944
:1052E000BDF818100A2215A8FFF731FC2C2115A8CB
:1052F00003F074F9BDF81A100A2215A8FFF727FC6D
:105300002C2115A803F06AF9BDF81C100A2215A873
:10531000FFF71DFC2C2115A803F060F9BDF81E1045
:105320000A2215A8FFF713FC2C2115A803F056F943
:10533000BDF820100A2215A8FFF709FC2C2115A89A
:1053400003F04CF9BDF822100A2215A803F061F908
:1053500015A803F046F919A801F002FC5DE600BFAC
:105360005CE60320EE910B00FCE00320F1910B00C2
:10537000F4910B00FF910B000D920B0011920B00AA
:105380001E920B0003F05CFB014903F040F944E678
:10539000BE910B00F0B595B0684601F028F9AB4816
:1053A00002A900F0CAFC30B903F04AFBA84903F097
:1053B00024F915B0F0BDA54F02AD08AEFC24012CB8
:1053C00005D92988384600F073FB86ED000A0134C0
:1053D000E4B2082C05F1020506F10406EFD103F052
:1053E0002FFB2C2103F0FAF803F02AFB044602F00D
:1053F00087FC0A224FF47A71B0FBF1F1204603F0EA
:1054000008F9204603F0EDF803F01AFB914903F088
:10541000E1F803F015FB9DED080A0221FFF7A4FB5C
:1054200003F00EFB8C4903F0D5F803F009FB0A22C8
:10543000BDF80810FFF78BFB03F002FB874903F070
:10544000DCF803F0FDFA864903F0C4F803F0F8FA3B
:105450009DED090A0221FFF787FB03F0F1FA7E496F
:1054600003F0B8F803F0ECFA0A22BDF80A10FFF7CF
:105470006EFB03F0E5FA794903F0BFF803F0E0FAB8
:10548000784903F0A7F803F0DBFA9DED0A0A022140
:10549000FFF76AFB03F0D4FA6F4903F09BF803F0BF
:1054A000CFFA0A22BDF80C10FFF751FB03F0C8FA3F
:1054B0006A4903F0A2F803F0C3FA6B4903F08AF8D3
:1054C00003F0BEFA9DED0B0A0221FFF74DFB03F03E
:1054D000B7FA614903F07EF803F0B2FA0A22BDF888
:1054E0000E10FFF734FB03F0ABFA5C4903F085F8CC
:1054F00003F0A6FA5D4903F06DF803F0A1FA9DED03
:105500000E0A0221FFF730FB03F09AFA524903F02A
:1055100061F803F095FA0A22BDF81410FFF717FBA3
:1055200003F08EFA4D4903F068F803F089FA504908
:1055300003F050F803F084FA9DED0F0A0221FFF703
:1055400013FB03F07DFA444903F044F803F078FAC2
:105550000A22BDF81610FFF7FAFA03F071FA3F4974
:1055600003F04BF803F06CFA424903F033F803F010
:1055700067FA9DED100A0221FFF7F6FA03F060FAD0
:10558000354903F027F803F05BFA0A22BDF818103A
:10559000FFF7DDFA03F054FA304903F02EF803F078
:1055A0004FFA354903F016F803F04AFA9DED110A57
:1055B0000221FFF7D9FA03F043FA274903F00AF86A
:1055C00003F03EFA0A22BDF81A10FFF7C0FA03F002
:1055D00037FA224903F011F803F032FA274902F0B2
:1055E000F9FF03F02DFA9DED120A0221FFF7BCFA34
:1055F00003F026FA184902F0EDFF03F021FA0A221F
:10560000BDF81C10FFF7A3FA03F01AFA134902F0D1
:10561000F4FF03F015FA1A4902F0DCFF03F010FA68
:105620009DED130A0221FFF79FFA03F009FA0A49D8
:1056300002F0D0FF03F004FABDF81E100A22FFF7B3
:1056400086FA03F0FDF90549B1E600BF5CE60320E8
:10565000D2910B0029920B00EE910B0035920B00BA
:105660003B920B0047920B0053920B005F920B0092
:105670006B920B0077920B0083920B008F920B00C2
:105680009B920B00022108B50846FFF749FC03F086
:10569000D7F92649264C02F0B0FF4EF660210120D2
:1056A000FFF76EFC23492448FFF798FC2148FFF7D9
:1056B00071FE22782148012100F0B2FB0121032074
:1056C000FFF72EFC03F0BCF91D4902F096FF032101
:1056D0000220FFF725FC03F0B3F91A4902F08DFF11
:1056E0004EF660210420FFF74BFC12491248FFF7E9
:1056F00075FC1048FFF74EFE22781048052100F097
:105700008FFB22780D480A2100F08AFB0E4B0B48D4
:105710001A78032100F084FB03F092F90B4902F0A0
:105720006CFF012002F020FDFBE700BFA7920B00F9
:10573000C8E10320BCE60320CCE1032084E603207B
:10574000C6920B00E3920B00F8E0032000930B00DD
:1057500037B52448244C254D00F056F8244800F075
:1057600022FB244A00234FF47A71C2E90131224915
:10577000136111606422C4F86024204AC4F87024C4
:1057800001226360C4F83C34C4F8683484F874249B
:10579000C4F87834A4F87C342978BFF35B8F1140C7
:1057A0000BD128460191FFF788F9019928B11448D7
:1057B00002F08AFF2846FFF785F9114BC4F86C34D4
:1057C0000021012002F00CFC0E4B0022C3E9002254
:1057D0000220A2F580329A6003B0BDE8304002F0AA
:1057E000EFBB00BF5CE60320CCE10320BCE103205B
:1057F00084E6032088E6032038930B0024930B00F3
:10580000C0E1032050E60320024A02600022027138
:105810008260704798930B002DE9F0410446806840
:105820000F4690461E4610B11021FFF744F9102094
:10583000FFF73DF9054618B14246394600F0B2FC83
:10584000A5600121284600F0C9FC30B1236831462B
:1058500020461B68BDE8F0411847BDE8F08170B5EF
:1058600001258AB00026CDE900650C462B468168EB
:10587000802204A800F094FB33462A4604A902A81B
:1058800000F065FC214602A800F073FC0AB070BD70
:1058900070B5012588B00024CDE900452B4681680C
:1058A0009222064602A800F07BFB02A800F033FC1F
:1058B000C30706D430462946FFF7D1FF284608B073
:1058C00070BD2046FBE710B501238AB00022CDE968
:1058D00000230C468022816804A800F061FB0123AC
:1058E0001A4604A902A800F032FC214602A800F0E2
:1058F00040FC0AB010BD30B501258BB00024CDE9C5
:1059000000452B468168802204A800F049FB2A4606
:10591000042304A902A800F01AFC294602A800F0FA
:1059200028FC054602A800F017FC38B1B4F57A7FD0
:105930000BD0012002F018FC0134F3E7B4F57A7FB4
:1059400008BF002528460BB030BD0025FAE710B58A
:1059500001238AB00022CDE900230C46AF228168E2
:1059600004A800F01DFB0323022204A902A800F0F2
:10597000EEFB214602A800F0FCFB0AB010BD10B5FA
:1059800000238AB00124CDE90034A3228168234694
:1059900004A800F005FB0623224604A902A800F093
:1059A000D6FB02A800F0D8FB003818BF01200AB0CF
:1059B00010BD10B504462046FFF7E1FF18B90120DD
:1059C00002F0D2FBF7E710BD30B5012389B0002506
:1059D000CDE900530C468122816802A800F0E0FA6C
:1059E0002A46214602A800F036FB09B030BD00B5BA
:1059F000012389B00022CDE900238122816802A819
:105A000000F0CEFA02A800F086FBC0B209B05DF843
:105A100004FB30B5012389B00025CDE900530C46C5
:105A200002238168CA2202A800F0BAFA2A46214657
:105A300002A800F010FB09B030BD00B5002389B00A
:105A40000122CDE9003202238168CA2202A800F0B7
:105A5000A7FA02A800F05FFB80B209B05DF804FB72
:105A600030B5012389B00025CDE900530C46AA22A8
:105A7000816802A800F094FA2A46214602A800F0A4
:105A8000EAFA09B030BD00B5012389B00022CDE9A2
:105A90000023AA22816802A800F082FA02A800F07E
:105AA0003AFBC0B209B05DF804FB00000000000042
:105AB000F8B52DED028B0D460446FFF7E4FF0A28EA
:105AC00097BF1F4BDFED1F8A03EB8000D0ED008AEC
:105AD0002046FFF78CFF431C204608EE103AFFF7E4
:105AE000ACFF044601342846FEF7ECFBB8EEC88A4A
:105AF00007EE904A28EE288AF8EEE77A064667EE27
:105B0000887A0F4617EE900AFEF7EEFB0AA3D3E958
:105B10000023FEF741FC0C4B0022FEF767FD024616
:105B20000B4630463946FEF761FDFEF72DFFBDEC12
:105B3000028B00EE100AF8BD3D0AD7A3703D064067
:105B400064930B000000000000408F4030B501233B
:105B500089B00025CDE9005314460A46816802A8A1
:105B600000F01EFA2A46214602A800F074FA09B095
:105B700030BD10B5302200210446FFF7E7FF0122B7
:105B800011462046FFF7E2FF204600220221FFF7E0
:105B9000DDFF204600220321FFF7D8FF2046002228
:105BA0000421FFF7D3FF204642220521FFF7CEFF55
:105BB000204600220621FFF7C9FF204600220721C8
:105BC000FFF7C4FF204650220821FFF7BFFF204601
:105BD00000220921FFF7BAFF204600220A21FFF721
:105BE000B5FF204600220B21FFF7B0FF2046202200
:105BF0000C21FFF7ABFF204604220D21FFF7A6FF83
:105C0000204600220E21FFF7A1FF204630220F215F
:105C1000FFF79CFF204601221021FFF797FF204647
:105C200050221121FFF792FF204600221221FFF798
:105C30008DFF20460622BDE810401321FFF786BFE6
:105C4000002210B511460446FFF780FF20460022CF
:105C50000121FFF77BFF204600220221FFF776FF9C
:105C6000204640220321FFF771FF20460222042133
:105C7000FFF76CFF204600220521FFF767FF204653
:105C800010220621FFF762FF204603220721FFF7BB
:105C90005DFF204650220821FFF758FF20461022C2
:105CA0000921FFF753FF204603220A21FFF74EFF89
:105CB000204600220B21FFF749FF204600220C213D
:105CC000FFF744FF204600220D21FFF73FFF20464B
:105CD00024220E21FFF73AFF204600220F21FFF772
:105CE00035FF204600221021FFF730FF20465022CA
:105CF0001121FFF72BFF204600221221FFF726FF7C
:105D000020460622BDE810401321FFF71FBF38B51B
:105D100004460D460021FFF7D6FD02212046FFF77D
:105D200016FE204635B1FFF724FF2046BDE8384077
:105D3000FFF7E1BDFFF784FFF7E72DE9F0410446E7
:105D400088B00E460121FFF7E2FF01212046FFF750
:105D5000BAFD4FF0000820460127FFF72AFE022374
:105D6000A1689522CDE9008702A800F019F90C225C
:105D7000314602A800F08DF9414605462046FFF75E
:105D8000C6FF39462046FFF79EFD2046FFF711FE6D
:105D90002DB10C22B11802A800F07BF90546284667
:105DA00008B0BDE8F08100220260704710B5012301
:105DB00088B00024CDE900437F22016802A800F0EA
:105DC000EFF82246214602A800F045F908B010BDC0
:105DD00030B5012389B00025CDE900530C460223DC
:105DE0000168062202A800F0DBF82A46E14302A877
:105DF00000F031F909B030BD30B5012389B000257C
:105E0000CDE900530C4602230168042202A800F0E9
:105E1000C7F82A46E14302A800F01DF909B030BDD9
:105E200030B50729144689B04FF0000211D801F1AE
:105E30002403DAB201230025CDE90053016802A84A
:105E400000F0AEF82A46214602A800F004F909B095
:105E500030BDA1F10803032B02D801F11803E8E7D4
:105E6000A1F10C03032BE5D801F12003E1E72DE9B3
:105E7000F041012492B00026CDE900640F4680462F
:105E8000016815460223042206A800F089F83B4663
:105E9000224606A902A800F05AF9D8F800100223F9
:105EA0001222CDE900640CA800F07AF83B462246A5
:105EB0000CA904A800F04BF9A5420AD1314602A86A
:105EC00000F057F9294604A800F053F912B0BDE8D4
:105ED000F0813DB1032DF9D1314602A800F049F916
:105EE0003146F0E7214602A800F043F92146EAE7EF
:105EF00030B500238BB00125CDE900350C462B468B
:105F00000168112204A800F04BF804232A4604A9D2
:105F100002A800F01CF984EA050102A800F029F9A2
:105F20000BB030BDF0B50446006889B00E46174688
:105F300010B11021FEF7BFFD1020FEF7B8FD054699
:105F400018B13A46314600F02DF925600121284666
:105F500000F044F918B90025284609B0F0BD2046E4
:105F6000FFF724FF05460028F5D001230026CDE9E0
:105F700000632168102202A800F012F802A800F0C5
:105F8000CAF82328E7D131462046FFF735FF3146CE
:105F90002046FFF7ADFF31462046FFF719FFDBE74C
:105FA00030B50025C0E9001542819DF810109DF81C
:105FB0000C20456141738273037330BDF0B5458990
:105FC000847A85B0034600688DF80C402D0A0E4691
:105FD00017468DF80D5040B15B7B019303AB0093E6
:105FE000012300F00AF905B0F0BD58680028FAD086
:105FF00093F808E093F80DC0BEF1030F0CD10CF13B
:10600000010325F0010500938DF80C508DF80D402B
:1060100003AB00F02AFAE6E7BEF1000F09D104F065
:106020007F048DF80C40CDF800C003AB3A463146F2
:10603000EFE7BEF1020F02D164F07F04F1E7BEF199
:10604000010F01BF9DF80C3003F07F0343F04003C4
:106050008DF80C30E7E7F0B40B4602B9027B042A56
:1060600014D800F10F05436184182946844209D0F1
:10607000877BDEB227B92E701B0A0135013CF5E79C
:10608000A673F9E72046F0BCFFF798BF0020F0BCEC
:1060900070477FB54689857A8DF80C5004460068B4
:1060A000360A0B468DF80D6040B10021CDE9002184
:1060B00003A9627B00F00FF904B070BD606800288E
:1060C000FAD0217A647B03290DD146F00106FF2125
:1060D000CDE900218DF80C608DF80D50621C03A9EC
:1060E00000F0F5F9E8E741B965F07F058DF80C504F
:1060F000FF21CDE900212246F1E7022902D105F076
:106100007F05F3E7012902BF9DF80C1061F03F0104
:106110008DF80C10ECE738B500F10F05027B29462D
:106120000446FFF7B6FF78B1227B294622440020BF
:10613000A2420BD00302A07B20B9907B1843013A06
:106140000131F5E70878F9E74FF0FF3038BD10B5B9
:1061500001600271437110BD10B504460068FFF77D
:10616000DAFF2279012393406279013BD040184045
:1061700010BD70B5044600680E46FFF7CCFF2379CA
:10618000617901229A40531E03FA01F520EA0505C0
:106190003340206803FA01F12943027BBDE87040D7
:1061A000FFF759BF42600022027220220170C260D4
:1061B000704710B5037A044653B12178606802F045
:1061C00099F8606802F0A1F8B0FA80F0400910BDBB
:1061D000012100F003F80028EFD1F8E738B50446B4
:1061E00040680D4602F054F80120207225B1204687
:1061F000BDE83840FFF7DDBF38BD2DE9F843DDE9E4
:1062000008961F46C368154632449A42044688469B
:1062100002D90020BDE8F8830178406802F06AF8EE
:106220007EB9606803682A46DB6841469847854224
:10623000EFD16068394602F064F8B0FA80F04009A6
:10624000E8E7B9F1000FECD0606803683246DB681C
:10625000494698478642DCD1E3E72DE9F0411546EF
:1062600004460E46D2B20178406802F02EF885420C
:106270000DD100271FFA87F8A84507F1010709D2B9
:10628000606803685B69984706F80800F2E7002039
:10629000BDE8F0810120FBE72DE9F8430746884679
:1062A000164699460025B54212D2FA68741B9442EC
:1062B00028BF1446331BAB4294BF4B4600232246F3
:1062C00008EB05013846FFF7C8FF10B12544EAE79F
:1062D0000120BDE8F88373B51D460023CDE90033E6
:1062E0009DF81C30069E0446FFF787FF40B101234E
:1062F00032462946204602B0BDE87040FFF7CCBFC9
:1063000002B070BD2DE9F04F0446006885B00D461F
:1063100040B10023009313460A4602F081FA05B00B
:10632000BDE8F08F237BA068484FB7FBF0F7002B48
:106330000B780CBF4FF0010B4FF0800B1BEA030FE3
:1063400001EB02030CBF4FF001094FF00009FFB24F
:106350000393039BAB42E2D095F800A05E464FF05A
:10636000000817B1384601F0BBFC637B13F0FD0F4A
:1063700041D194F910305A1C0FD01AEA060114BF0B
:10638000012300234B4508D06369606A1A6800291D
:106390002CD002431A604FF00109A169E36A0A6830
:1063A00013430B6017B1384601F09AFC94F9113091
:1063B000013306D0E3691A68A36A1A4218BF46EA95
:1063C0000808A169E36A0A6822EA03030B6094F9EA
:1063D0001130013318BF85F80080237B002B32D1A8
:1063E0007600F6B2002EBCD10135B2E722EA0002F7
:1063F0001A608946D1E7A169E36A0A6813430B6012
:1064000017B1384601F06CFC94F91030013308D014
:106410006369616A1A681AEA060F14BF0A438A435D
:106420001A60A169E36A0A6822EA03030B6094F91F
:1064300011300133CBD0E3691A68A36A1A4218BF3E
:1064400046EA0808C3E77608CCE700BF20A10700AA
:1064500007B501228DF807100DF10701FFF752FF74
:106460009DF8070003B05DF804FB2DE9F0410446F8
:1064700000680E4617461D4610B1616802F05CF9CF
:1064800094F90E00002180B202F029FC069B05EB76
:106490000308454508D13744B7420BD016F8011B15
:1064A0002046FFF7D5FFF7E715F8011B2046FFF759
:1064B000CFFFEEE794F90E00012180B202F00FFC4D
:1064C000206808B102F01EF90120BDE8F0812DE935
:1064D000F041044600689DF81C800E4617461D4694
:1064E00010B1616802F028F994F90E00002180B221
:1064F00002F0F5FB3744BE420AD1069BEE18AE42CD
:106500000CD041462046FFF7A3FF05F8010BF6E744
:1065100016F8011B2046FFF79BFFECE794F90E00ED
:10652000012180B202F0DBFB206808B102F0EAF83A
:106530000120BDE8F081000030B50F4C002301338D
:10654000DDB28D4204D214F8015B2A4492B2F6E720
:10655000022903D9830704BF013292B200EBC001C4
:10656000C31C00EBC10000EB8000C3F38D030138B6
:106570001844104480B230BD9C930B0008B582785B
:1065800041780078FFF7D8FF07230630B0FBF3F31C
:10659000C3EBC303C01AC0B208BD08B502F0D4FBF8
:1065A00001F076FE012008BDFFF7F7BF08B502F045
:1065B000CBFB682101F0A2FE02F0C6FB03680221BA
:1065C0009B68984702F0C0FB01F09FFE02F0BCFB05
:1065D0000122682101F08BFE02F0B6FB03685B69C3
:1065E000984700F0E000E03818BF012008BD2DE911
:1065F000F843044602F0A8FB682101F07FFE02F098
:10660000A3FB036803219B68984702F09DFB01F000
:106610007CFE02F099FB0722682101F068FE02F07F
:1066200093FB03685B69984700F07F09C0F3021091
:10663000A0EB800009EB40005FFA80F902F084FBD8
:1066400003685B699847C0F30315A5EB850500EB6C
:10665000450000F0FF0502F077FB03685B6998478F
:10666000C0F30316A6EB860600EB460000F0FF061B
:1066700002F06AFB03685B699847C0F30317A7EB56
:10668000870700EB470000F0FF0702F05DFB03689F
:106690005B69984702F058FB03685B699847C0F351
:1066A0000318A8EB880800EB480000F0FF0802F090
:1066B0004BFB03685B699847C0F30313A3EB8303A9
:1066C00000EB4300207084F80180A770E67025710C
:1066D00084F805902046BDE8F88338B504460D4699
:1066E0002422002102F0BAFBA560EB79102B03D025
:1066F000202B06D0002038BD202301202370A0705D
:10670000F9E74023F9E710B50446243000F062FEB3
:1067100028B104F50C70BDE8104000F05BBE10BD60
:106720008378016943F00403837000F110028068EC
:1067300000F006BF2DE9F041017811F02005044674
:1067400003D000263046BDE8F0814269174B9A42DB
:10675000F7D2FFF7E5FF06460028F2D02169A068CE
:1067600000F083FE0746A06805223946243000F079
:1067700059FE80460028E4D029464FF4007202F00A
:106780006DFB0125A3681A79AA4209D91868424607
:10679000E91901F0B4F90028D3D00135EDB2F1E7E1
:1067A000636903EB42236361CCE700BF00FE1F0077
:1067B00010B5044680680A462430A16900F032FE14
:1067C00020B1A38803F00F0300EB431010BD037842
:1067D0000BB9FFF782BF002070472DE9F74F037810
:1067E000044688461546002B5DD08278D1075AD5DD
:1067F0001A072DD5C36942699B1A9D4228BF1D46C1
:106800002E464FF0000904F1100B002E00F08F808F
:1068100022786369A0689706C3F3080A4FEA5321F8
:106820001FD5006A0144A068BAF1000F42D1B6F545
:10683000007F3FD3C36A99423CD0B6F5806F52D2F5
:106840000068424601F0D2F868B34FF4007744E0A4
:106850009B06D5D583681A894369C3EB42139BB263
:10686000CBE790F8059009EA0109BAF1000F08D1C9
:10687000B9F1000F05D15BB951064CBF036A236A19
:1068800023612169A06800F0F0FD09EB0001CAE76F
:1068900021695A4600F0EFFD002804DBF1D123788E
:1068A00013F0700F43D1637843F0020363704FF02D
:1068B000FF303DE0CAF50077B7424FF0000200F12B
:1068C000240028BF374600F0ADFD0028EBD000EBD8
:1068D0000A013A46404602F0B3FA63693B44B844C1
:1068E0006361F61B91E7227892064FEA562A06D496
:1068F0000279A2EB0902D2B2924528BF9246994290
:106900004FEA4A2708D2A06853460068424601F081
:10691000B5F80028E1D1C6E753448B42F3D92430BF
:10692000019100F057FD01990028ECD1BBE7A81BAD
:1069300003B0BDE8F08F73B501220DF10701D0E976
:1069400004560446FFF749FF01280ABF9DF80700D7
:106950004FF0FF30C4E9045602B070BD37B543694B
:1069600013F4F07F0446C3F3431500D099B9012214
:106970000DF107012046FFF730FF40B2012802D099
:10698000002003B030BD63691F33A06863613030FD
:1069900000EB4510F5E72033F7E72DE9F0410278E9
:1069A000076904460D4662B14069884202D019B9B0
:1069B00021616561012006E0160706D5E3698B4277
:1069C0000BD227610020BDE8F081910605D5A368B0
:1069D0001B89B5EB431FECD9F3E7D4F808C09CF84A
:1069E0000660431E06F109016E1ECB40CE40B34245
:1069F00000D898B953064CBFDCF82030236A2361D5
:106A000004F11008002ED4D02169A068424600F09D
:106A100032FD002806F1FF36F4DCD2E7F61AEFE784
:106A2000F8B50F4604461546002124221E4602F002
:106A300015FAB868A060A58005F00F053B6AE36011
:106A40006A0100EB451595F83B301F0744D403F06D
:106A50001703237095F83B1011F0180F04BF43F093
:106A6000080323709DF81830E37006F00303012B30
:106A70002CD0022B28D07BBB71052DD40123A37011
:106A8000A1788B0704D52378DF0625D4DD0723D42E
:106A9000B31123F07F0306F008052B430B43A370CB
:106AA000C36AA3618318B3F84420B3F84A1041EADB
:106AB0000241720513D559B9A37843F00403A370BA
:106AC000730410D40120F8BD0323D8E70223D6E7CE
:106AD00000F071FD0028EFD100202070F3E7216263
:106AE000DB6CE361ECE7E1692046FFF756FF002825
:106AF000E8D1F1E738B5037804460BB9012038BD79
:106B000083785A0723D50121FFF752FE054628B99D
:106B1000637843F0010363700020F0E70378E52B0E
:106B2000F6D023781B0744BFE369C361236A43831C
:106B3000638C8382094B1B682BB100F1160118305E
:106B400098472B8B6B82A37823F00403A370A06873
:106B5000FFF7D9FD0028DBD0D0E700BFC0E6032057
:106B600010B50446FFF7C6FF0023237010BDF0B533
:106B700093B01F46002309930378019206460C4602
:106B800013B1002013B0F0BD0B7813F0700FF8D0E4
:106B900013782F2B12D1019A13782F2B02D10132A7
:106BA0000192F8E7A1681BB93046FFF710FEE9E74C
:106BB00009A8FFF792FD0028E3D009AC019801AACB
:106BC00003A900F00BF90028DBD0019B1B789BB1D7
:106BD000002303AA2146304600F032FA0028D0D024
:106BE00035460FCD09AC0FC40FCD0FC42B68236001
:106BF0003046FFF7B5FFE0E73B4603AA21463046A3
:106C000000F01EFABEE700002DE9F0470378894640
:106C10001907044617465BD583789A0758D51B0792
:106C200051D46369DB43BB4252D3B84604F1100A26
:106C30006669B8F1000F00F09180A0684379C6F34F
:106C4000080513EA56260ED16DB92169002946D0F0
:106C5000524600F010FC00283ADB04D12046FFF732
:106C60005FFD002834D02169A06800F0FEFB3118D8
:106C7000A06815B9B8F5007F3FD2C5F50076464546
:106C800028BF4646002D36D16269E3699A4234BF77
:106C900001220522243000F0C5FBC8B12844324649
:106CA0004946354402F0CCF8B5F5007F04D1A06820
:106CB000243000F08FFB58B1636933446361B14401
:106CC000A8EB0608B4E7C169FFF767FE0028A8D162
:106CD000637843F0010363704FF0FF3050E0236AA4
:106CE0003BB92046FFF71CFD0028F1D02369236241
:106CF000B9E72361B7E70122CCE7B8F5806FC26A34
:106D00001BD390F804C0ACEB0606F3B24FEA582E42
:106D1000734528BF734691424FEA432607D31A446E
:106D20008A4282BF4FF0FF3280F82450C262A568C9
:106D30004A46286800F059FFBDE7914202BF4FF074
:106D4000FF3380F82450C362A3684A46186800F0F5
:106D5000D6FE0028BCD04FF40076ADE7E269A378F8
:106D6000B24204D2E66143F00403A37003E0084A90
:106D70001268002AF7D194F90230002B02DB384662
:106D8000BDE8F0872046FFF7B5FE0028F7D19FE762
:106D9000C0E60320042904D800EB4100B0F801004C
:106DA00070470A299BBF01F1FF3100EB410001311F
:106DB000C08884BF00EB410080887047411E00F10D
:106DC0000A030020420842EAC01011F8012F52FACB
:106DD00080F08B42C0B2F5D1704700002DE9F0473A
:106DE000064610F8013B202BFAD06A4D8E60002435
:106DF000335DC3B12F2B16D05C2B02D10020BDE830
:106E0000F087A3F12200C0B21D2803D825FA00F0B4
:106E1000C007F3D403F0BF003C28EFD0203B5E2B2B
:106E2000ECD80134E4E733191846074610F8015B43
:106E3000202DFAD02F2DF8D017604CB113F8012D6A
:106E40002E2A01D0202A01D1013CF6E7FF2CD5DC07
:106E50004FF02033C1F811304C60C1F80D304B6158
:106E60004FF0000816F808302E2B01D0202B02D14D
:106E700008F10108F6E7B8FA88F04009651E6B1CB6
:106E800002D0735D2E2B14D14FF0000907274A461C
:106E9000CA464FF0080EA04568DA16F80830202BD5
:106EA00003D02E2B07D1A84512D0002008F10108ED
:106EB000F1E7013DE3E7222B08D07C2B06D0A3F1BC
:106EC0002A0CBCF1050F0AD82D2B12D0A8455BD196
:106ED0000A2F4AD00A2708224FF0100EE6E7A3F146
:106EE0003A0CBCF1050FF1D9A3F15B0CBCF1020F18
:106EF000ECD9A3F1210CBCF15D0FE7D8A845E7D090
:106F0000BA4230D8A3F1610CBCF1190F1AD8203B5A
:106F10004EEA0909DBB25FFA89F902F1010C5FFA66
:106F20008CFC0A44BCF1060F537301D881F80CC0E5
:106F30006246BBE7A84518DCA8460A2708224FF09E
:106F4000100EB2E7A3F1410CBCF1190F98BF4EEA45
:106F50000A0AE2E70B7B0120087019447E234B7379
:106F600031238B734BE70A2FE4D100204B7B202B7E
:106F70003FF444AF0028EDD01AEA090F18BF4FF0D4
:106F8000020981F800903AE7BA42ECD800205F236A
:106F9000C3E700BF010100312DE9F84391F80C90DF
:106FA00006460C4602257E2701F10D086168A2689D
:106FB0006B189BB21144914206D012F8010B03EBFF
:106FC000431343409BB2F6E7B9F1030F28BF4FF0DC
:106FD000030909F10402D2B203F00F01A018013A2B
:106FE0000929D2B294BF30313731914541734FEA0C
:106FF0001313F1D104EB090300215F733046FFF74F
:10700000CCFC01213046FFF7A9FC014628B9707875
:10701000B0FA80F04009BDE8F88303786BB1C37A19
:107020001B07EED40B22404601F0FAFE0028E8D1FF
:107030000135ADB2642DB9D1EDE70120EBE70000D9
:107040002DE9F04F2DED028B8BB00D4606930B789A
:10705000079013F0700F174605D100200BB0BDEC60
:10706000028BBDE8F08F079B1B78002BF5D153688E
:10707000059313789C071FBF059B0C330D22B3FBB0
:10708000F2F31ABF0133DBB2012300212846039338
:10709000FFF783FC07F10D034FF0000B08EE103AE9
:1070A000DA465C465E46CDF810B0D9466B690121E0
:1070B0002846C3F34F18FFF751FC0346002871D14F
:1070C0006B78002BC9D1069B9A05C6D503F0030344
:1070D000013B012BC1D8049B002C08BF43460493FD
:1070E000039B9C42C0F0F180B9F1000F40F00A818F
:1070F000049B28465901FFF750FC0028ADD0039BA4
:1071000003F1FF395FFA89F94E464FF0000A4FF05C
:107110000F08002E00F00D8100212846FFF71EFC0D
:107120000446002899D0AA6892F824304E4543F0CE
:1071300001030CBF46F0400BB34682F8243080F8C0
:1071400000B080F80B8080F80CA007F10D00FFF76D
:1071500035FE84F81AA0607384F81BA00BF01F039F
:107160000D22013BD7F808C05343002205999942EC
:1071700040F2D0801CF80310042A5FFA82FE02F16C
:10718000010000F2CD8004EB4202A2F801100D28AC
:1071900003F101030246E9D1013EF6B2B9E74FF02F
:1071A000010983E70278E52A00D07AB90499002C16
:1071B00008BF4146049103998C423CBF0134E4B2BC
:1071C000002A80D0E52A05D100266FE703998C427A
:1071D00038BF00242E2AF7D0D97A0F294AD116BBFE
:1071E00012F040063FF462AF02F01F0693F80DB0B4
:1071F000B2460D220AF1FF3802FB08F8059A424513
:10720000E2D9A2EB08020892002202EB08010991E0
:107210001846D1B2FFF7BEFD08998A420DD1002869
:1072200018BF002642E70AF1FF3A5FFA8AFA524590
:10723000CAD15A7B5A45DCD0C6E7FF28C4D85FFACA
:1072400080FEAEF141011929B9689CBF0EF1200002
:107250005FFA80FE08460999415CA1F1410CBCF13E
:10726000190F9CBF2031C9B27145ADD101320D2A31
:10727000CBD11BE70807A7D45EB1BAF1010F7FF4A9
:10728000ECAE1846FFF79AFD58457FF4E6AEB146DE
:107290000EE018EE101A0B22184601F0C1FD00286E
:1072A0007FF404AF97F8009019F001097FF477AFED
:1072B000069B19053FF5D1AE069B0798CDF80090C7
:1072C00042462946FFF7ACFBC8E600212846FFF7F7
:1072D00045FBA0B96B78002B7FF4BFAE2846FFF7C3
:1072E00029FA00283FF4B9AEAB681B79012B3FF6B1
:1072F000FBAE039B1034E4B2A342EFD8F4E60134B2
:10730000E4B2EDE639462846FFF746FE00287FF452
:10731000EFAEA2E614BF4FF0FF31002189B22BE798
:10732000BEF10A0F94BF04EB420204EB40029180CD
:107330002DE731462846D5F81480FFF70FFB0446A9
:1073400000283FF48AAE2022314601F087FDD7F8AD
:107350000D302360D7F811306360B7F81530238102
:10736000FB7DA3723B7803F0180323730F4B1B685C
:107370009BB104F10E0104F110009847238A638247
:107380002383E389E382AA6892F8243043F001035F
:10739000C8F34F1882F824308EE721232374282362
:1073A00063740823A673E373E8E700BFC0E6032015
:1073B00013B50446084659B10191FDF735FB236822
:1073C0000199DB680246204602B0BDE8104018472C
:1073D00002B010BD37B50378DA07044620D54368FC
:1073E000816800F10C021868019200F088FB019A94
:1073F000054618B90025284603B030BD23789B0701
:1074000004D4237823F001032370F4E7D4E9013096
:1074100019690144186800F072FB0028F1D1E9E70E
:107420000125E8E770B583688B4204460E46154691
:1074300009D0FFF7CFFF08B9002070BD6B070AD550
:1074400000232370A660227805F00305204615432B
:1074500000F80C5BF1E7636804F10C021868314630
:1074600000F0C4FA0028EBD1E6E7837940690239DD
:10747000994008447047012970B505460C461646E8
:1074800002D84FF0FF3070BDC3698B42F9D3C37986
:10749000202B16D18169022201EBD41100F50C706A
:1074A000FFF7C0FF0028ECD004F07F0450F8243030
:1074B00023F07043EA699A4226BF3360012000201E
:1074C000E1E7102BDDD1C1F30723816902221944C2
:1074D00000F50C70FFF7A6FF0028D2D0E4B230F818
:1074E0001430E7E7012938B50C46154601D80020CD
:1074F00038BDC3698B42FAD3C379202B0FD1816980
:10750000032201EBD41100F50C70FFF78BFF00286C
:10751000EDD004F07F0440F824500120E8E7102B60
:10752000E5D1C1F3072381690322194400F50C70EA
:10753000FFF778FF0028DAD0E4B220F81450ECE727
:107540002DE9F341C4688C4205460E46904601D3AE
:10755000012701E00C460027EB690134A34202D267
:10756000C7B9EC68F4E7A64214D001AA2146284620
:10757000FFF781FF00280DDBEED0019B002BEBD144
:1075800007B1EC606FF0704221462846FFF7AAFF72
:10759000074620B90027384602B0BDE8F08116B989
:1075A000C8F80040F7E7224631462846FFF79AFF21
:1075B0000028F5D1EEE773B505460C4601AA214631
:1075C0002846FFF758FF061E10DB002221462846FA
:1075D000FFF788FF50B1EB68A34224BF04F1FF34EA
:1075E000EC60019C002EE9D102B070BD0020FBE7E9
:1075F000012370B50022C3604FF0FF330446C2710F
:1076000000F12406806280F82420C362C0F83402AE
:1076100080F83022C0F838320D46B9B1042901D9BA
:10762000002070BD11463046FFF7FCFE0028F7D061
:1076300000EB051393F8AE315B06F1D105F11B01A8
:1076400000EB0110D0F80650002DE9D000222946A9
:107650003046FFF7E7FE0028E2D0B0F80B30B3F574
:10766000007FDDD1037C022BDAD1C389002BD7D078
:10767000417B21714B1E63710023A37109260123F5
:10768000994207D0013ECBD0A2795B000132DBB238
:10769000A271F5E7C18A01B9416A2161C3892B440E
:1076A000A361B0F81120228103EB41032362B0F8FB
:1076B0001110490101F2FF1103EB51236361B0F88E
:1076C000132002B9026AE91AA3791144D9404B1C6C
:1076D000E36140F6F473994202D80C23E3719FE70B
:1076E0004FF6F473994285BFC36A236210232023A7
:1076F000E371012095E700F0CBBA00F0AEBA0000CC
:1077000070B50E4E0D46144600F0F2FA3368C01AFA
:107710000B4B984208D900F0F3FA0A4B186000F0BE
:107720007BFC00F0E5FA306000F0EAFA80B2401B22
:10773000A042D4BF0020012070BD00BFC8E60320D6
:10774000A086010034E7032038B5057A04464DB918
:10775000406800F06BFA63682946187D01F0BFFAB3
:107760000123237238BD10B5037A04466BB1436818
:107770000121187D01F0B3FA6068FF21FFF7BBFF1C
:10778000606800F067FA0023237210BDF8B5044664
:107790000D46164600F0B4FA87B26068FFF7ADFFF9
:1077A000FF2860720ED14FF47A7239462046FFF7F7
:1077B000A7FF0028F1D0552320462370FFF7D3FF01
:1077C0000020F8BDFE2801D05023F5E7606832465E
:1077D000294600F047FA607208B16023ECE7606860
:1077E000FFF78BFF6068FFF788FF0120E9E770B5BE
:1077F00004460E4600F084FA85B2324629462046F9
:10780000FFF77EFF30B96068FFF777FFFF28F4D1FC
:10781000012070BD0020FCE7F7B5037A0192044611
:107820000D460BB9FFF790FF25B14FF49671204636
:10783000FFF7DDFF606845F04001FFF75CFF0326BE
:1078400001AFB95D6068FFF756FF013EF9D2002D28
:1078500060680CBF95218721FFF74DFF6068FFF737
:107860004CFF0B256068FFF748FF0306607203D5E5
:10787000013D15F0FF05F5D103B0F0BD70B504462C
:107880000D46164637210022FFF7C6FF324629462D
:107890002046BDE87040FFF7BFBF00002DE9F04172
:1078A00000250572057085724160044690461E46AB
:1078B00000F026FA41460746606800F0BBF96368AD
:1078C000494A1D720125DA601D822046FFF73CFF00
:1078D00063682946187D01F002FA0A256068FF21D5
:1078E000013DFFF708FF15F0FF05F7D16368294652
:1078F000187D01F0F4F90A25002211462046FFF711
:107900008BFF0128804618D0013D15F0FF0507D1F7
:10791000202320462370FFF726FF0020BDE8F081DA
:107920006068FD21FFF7E7FE4FF402786068FFF71B
:10793000E4FEB8F10108F9D1DEE74FF4D572082171
:107940002046FFF769FF052814D184F80A80002536
:10795000BFB22A4629212046FFF790FF0246D8B140
:107960004FF4FA6239462046FFF7CAFE0028F0D0ED
:107970004323CEE704256068FFF7BFFE013D15F005
:10798000FF056072F7D1AA2804D10223A3724FF039
:107990008045DDE72523BCE7A37A022B18D13A21E5
:1079A0002046FFF739FF08B13723B2E76068FFF7D9
:1079B000A4FE00F0C000C02804BF0323A3726068C7
:1079C000FFF79BFE6068FFF798FE6068FFF795FE83
:1079D0002046FFF7C8FE63683079B168B2891A8221
:1079E0001872D960012099E790D0030038B5837AE6
:1079F000032B18BF490215460A4611210446FFF71A
:107A00000BFF30B1302323702046FFF7ACFE00257A
:107A10000BE029464FF400722046FFF7B7FE0546FB
:107A20000028F1D02046FFF79EFE284638BD10B54D
:107A3000837A032B0A4618BF4A0212210446FFF735
:107A4000EBFE30B1312320462370FFF78CFE00207F
:107A500010BD0120FCE710B500220C210446FFF701
:107A6000DBFE30B1282320462370FFF77CFE002088
:107A700010BD2046FFF777FE0120F9E7F8B5044670
:107A800016461F46FFF7D3FF68B10025ABB29F42F1
:107A900006EB452109D94FF400722046FFF776FE28
:107AA00001350028F2D10020F8BD2046BDE8F8409D
:107AB000FFF7D1BF38B5044615464068FFF71BFEF7
:107AC0004FF400726068294600F0E6F86068FF2114
:107AD000FFF711FE6068FF21FFF70DFE6068FFF7FA
:107AE0000CFE607200F01F00052806D057232046C8
:107AF0002370FFF738FE002038BD0120FCE770B589
:107B0000837A032B18BF490215460A4618210446FA
:107B1000FFF782FE064630B1322323702046FFF77E
:107B200022FE00251FE02A46FE212046FFF7C2FF65
:107B30000028F3D04FF4FA612046FFF758FE0546BF
:107B400008B95A23E9E732460D212046FFF764FEC3
:107B500008B12923E1E76068FFF7CFFD0028F8D1DD
:107B60002046FFF700FE284670BD13B501914FF483
:107B7000FA610446FFF73BFE019A30B95B2323709C
:107B80002046FFF7F0FD002005E0FC212046FFF72E
:107B900091FF0028F4D002B010BD10B5837A032BFA
:107BA0000A4618BF4A0219210446FFF735FE30B1D4
:107BB000332320462370FFF7D6FD002010BD01209F
:107BC000FCE738B54FF4FA610446FFF710FE0546AE
:107BD00030B9562323702046FFF7C5FD284638BD2F
:107BE0006068FD21FFF787FDF5E7F8B50446164606
:107BF0001F46FFF7D2FF70B10025BD4206EB4521BD
:107C0000204604D0FFF7B1FF28B10135F5E7BDE804
:107C1000F840FFF7D6BF2046FFF7A5FD0020F8BDCE
:107C2000014B01221A707047CCE60320011D006849
:107C300000F082BD10B504460175006800F04EFDED
:107C4000207D012101F03AF8207D0121BDE810409E
:107C500001F045B8006800F055BD0068FF2100F054
:107C6000D9BD000037B51346074A00920025074CDE
:107C7000006825700A46294600F0D2FD2378002BC3
:107C8000FCD0002003B030BD217C0B00CCE60320EB
:107C9000006800F0BFBD000037B51346064A0092E9
:107CA0000025064C006825702A4600F0B9FD2378AF
:107CB000002BFCD003B030BD217C0B00CCE60320B0
:107CC00008B5024B1B685B6C019308BD48020300BA
:107CD00008B5024B1B685B68019308BD18020300DE
:107CE00008B5024B1B68DB68019308BD180203004E
:107CF00008B5024B1B681B69019308BD18020300FD
:107D000008B5024B1B685B69019308BD18020300AC
:107D100008B5024B1B689B68019308BD2C02030049
:107D200008B5024B1B68DB68019308BD2C020300F9
:107D300008B5024B1B681B69019308BD2C020300A8
:107D400008B5024B1B68DB68019308BD28020300DD
:107D500008B5024B1B689B69019308BD280203000C
:107D600008B5024B1B68DB69019308BD28020300BC
:107D700008B5024B1B681B6A019308BD280203006B
:107D800008B5024B1B685B6A019308BD280203001B
:107D900008B5024B1B689B6A019308BD28020300CB
:107DA00008B5024B1B68DB6A019308BD280203007B
:107DB00008B5024B1B681B6B019308BD280203002A
:107DC00008B5024B1B685B6B019308BD28020300DA
:107DD00008B5024B1B681B6C019308BD2802030009
:107DE00008B5024B1B681B6D019308BD28020300F8
:107DF00008B5024B1B685B69019308BD6402030070
:107E000008B5024B1B689B68019308BD680203001C
:107E100008B5024B1B68DB68019308BD68020300CC
:107E200008B5024B1B681B68019308BD30020300B4
:107E300008B5024B1B685B69019308BD3002030063
:107E400008B5024B1B68DB69019308BD30020300D3
:107E500008B5024B1B681B6A019308BD3002030082
:107E600008B5024B1B685B6A019308BD3002030032
:107E700008B5024B1B689B6A019308BD30020300E2
:107E800008B5024B1B689B6B019308BD30020300D1
:107E900008B5024B1B68DB6B019308BD3002030081
:107EA00008B5024B1B681B6C019308BD3002030030
:107EB00008B5024B1B685B6C019308BD30020300E0
:107EC00008B5024B1B68DB68019308BD3C02030048
:107ED00008B5024B1B681B69019308BD3C020300F7
:107EE00008B5024B1B685B69019308BD3C020300A7
:107EF00008B5024B1B689B69019308BD3C02030057
:107F000008B5024B1B68DB69019308BD3C02030006
:107F100008B5024B1B681B6A019308BD3C020300B5
:107F200008B5024B1B689B6A019308BD3C02030025
:107F300008B5024B1B681B6C019308BD3C02030093
:107F400008B5024B1B681B68019308BD4C02030077
:107F500008B5024B1B685B68019308BD4C02030027
:107F600008B5024B1B681B69019308BD4C02030056
:107F700008B5024B1B685B69019308BD4C02030006
:107F800008B5024B1B689B69019308BD4C020300B6
:107F900008B5024B1B68DB69019308BD4C02030066
:107FA00008B5024B1B681B6A019308BD4C02030015
:107FB00008B5024B1B685B6A019308BD4C020300C5
:107FC00008B5024B1B685B68019308BD20020300E3
:107FD00008B5024B1B685B69019308BD20020300D2
:107FE00008B5024B1B68DB6A019308BD2002030041
:107FF00008B5034B1B68D3F88830019308BD000017
:108000002002030008B5034B1B68D3F8943001939A
:1080100008BD00002002030008B5024B1B689B68E6
:10802000019308BD4402030008B5024B1B68DB6BDB
:10803000019308BD4402030008B5024B1B685B684E
:10804000019308BD4002030008B5024B1B689B6802
:10805000019308BD4002030008B5024B1B68DB68B2
:10806000019308BD4002030008B5024B1B681B6961
:10807000019308BD4002030008B5024B1B685B6911
:10808000019308BD4002030008B5024B1B689B69C1
:10809000019308BD4002030008B5024B1B68DB6971
:1080A000019308BD4002030008B5024B1B681B6A20
:1080B000019308BD4002030008B5024B1B681B6B0F
:1080C000019308BD4002030008B5024B1B685B6BBF
:1080D000019308BD4002030008B5024B1B681B6CEE
:1080E000019308BD4002030008B5024B1B685B6C9E
:1080F000019308BD4002030008B5024B1B685B6D8D
:10810000019308BD4002030008B5024B1B689B6D3C
:10811000019308BD4002030008B5024B1B681B68B1
:10812000019308BD1C02030008B5024B1B685B6885
:10813000019308BD1C02030008B5024B1B685B6A73
:10814000019308BD1C02030008B5024B1B681B6CA1
:10815000019308BD1C02030008B5024B1B685B6C51
:10816000019308BD1C0203000021FFF731BF00008E
:10817000024800230360FFF7A3BD00BFD0E6032041
:10818000002240681146FFF78FBF00224068114669
:10819000FFF79ABF40680022FFF78EBF40680022B9
:1081A00081F00101FFF778BF002340681A461946A5
:1081B000FFF76ABF002340681A461946FFF75CBF05
:1081C000002240681146FFF74FBF00224068114669
:1081D000FFF73ABF406800220221FFF73DBF0023AE
:1081E00040681A46FFF728BF024B03225A60024A32
:1081F0001A607047D4E60320B0930B007047F8B5BF
:10820000064615460C468F18BC4206D0336814F853
:10821000011B9B6830469847F6E72846F8BD007C6E
:108220000022FFF7A5BD007C0021FFF7A9BD007C5F
:108230000021FFF7ADBD007C0021FFF7B1BD007C40
:108240000021FFF7B5BD10B514210446FCF733FC3F
:10825000204610BD38B5044615464FF47A73002207
:10826000C4E90123094B2174084623602946FFF71E
:10827000AFFDBF3008D16B69DB0705D56868FFF734
:1082800053FFE868FFF750FF204638BDF4930B001A
:108290000023007C1A461946FFF752BD7FB5002225
:1082A0001423CDE90122ADF804300B788DF80830A5
:1082B0004B680393CB680493007C0B7A059301A968
:1082C000FFF78EFD07B05DF804FB1FB5003B8DF88E
:1082D00000104FF06401039118BF01236946019219
:1082E0008DF80830FFF7DAFF05B05DF804FB0123D5
:1082F000FFF7EBBF007C0022FFF72ABDC9B2FFF7F2
:10830000F9BF007C0022FFF72BBD0121FFF7F9BF69
:10831000704710B518210446FCF7CDFB204610BD70
:10832000F0B5037D062B8DB00E4600F104074FF02B
:10833000000412D000F1080515F8011D0A2230468C
:1083400000F067F9AF42044419D0002CF4D02E217C
:10835000304600F043F90444EEE72F236A463946DD
:108360000A208DF80040FFF743FD6846FCF75CFBF0
:1083700033680246DB686946304698470446204623
:108380000DB0F0BD10B5054B0446112240F8043B7A
:10839000002100F063FD204610BD00BF20940B00BB
:1083A0000346074A10B543F8042B01F1100251F8B7
:1083B000044B43F8044B9142F9D10A781A7010BD6E
:1083C00020940B0010B59DF8084044EA032343EACB
:1083D000024242EA016104234160037510BD0000BE
:1083E00007B5064B0360CB7800938B784A78097801
:1083F000FFF7E8FF03B05DF804FB00BF20940B001B
:10840000014B024A1A607047DCE603202C940B00F3
:10841000002340681A46FFF70FBE40680022022181
:10842000FFF71ABE002240681146FFF70DBE00227A
:1084300040681146FFF718BE002340681A461946E7
:10844000FFF71ABE002340681A461946FFF71CBE04
:1084500040680021FFF740BE40680021FFF744BE9E
:108460004068002281F00101FFF716BE406800223B
:10847000FFF722BE002240681146FFF725BE00220A
:1084800040681146FFF710BE40680021FFF73CBE70
:108490002DE9F04395B014460D460746FFF772FFED
:1084A00000211C220DA8009100F0D8FC40230C9361
:1084B00020466B460CAA0021FFF7AAFC04460028C0
:1084C0004BD1024601216868FFF7CEFD02218046AC
:1084D00022466868FFF7C8FD009E81462146002EAF
:1084E0003BD0002939D17368022B03D00A2B11D05D
:1084F000F669F4E7B8F1000FFAD0716906A8043103
:1085000007ADFFF76DFF0FCD3C1D0FC42B68237027
:108510004146EDE7B9F1000FEAD07469102201A8D5
:1085200000F09CFC06238DF8143001AD04F1080323
:108530001834186859682A4603C20833A3421546FE
:10854000F7D101A906A807ADFFF72AFF0FCD3C1D03
:108550000FC42B6823704946CAE70098FFF750FC08
:10856000384615B0BDE8F083033802289ABF024BA5
:1085700053F820000148704730940B00E0E60320D8
:1085800008B500224068FFF7B7FDBDE80840FFF7D7
:10859000EBBF0000024B034A1A6000225A6070478A
:1085A000E0E6032044940B00F8B506460D468F180C
:1085B0000024BD420CD0336815F8011B9B6830467F
:1085C0009847031E01DB1C44F3E7002C08BF1C4640
:1085D0002046F8BD08B5FEF7EBFE08BD03689B68B2
:1085E000184738B50D210546FFF7F8FF0A21044664
:1085F0002846FFF7F3FF204438BD38B50546FEF79F
:10860000D7FE04462846FFF7ECFF204438BDFFF7AD
:10861000F4BF30B58BB00023012A8DF8243098BF09
:108620000A2209AC0D46B1FBF2F101FB125303F033
:10863000FF03092B94BF30333733DBB2AA4204F86F
:10864000013DEFD92146FEF7B3FE0BB030BD2DE959
:10865000F04186B000AF05460E46381D1421144681
:108660003B60FFF769FD13280ED8391D2846FEF739
:108670009FFE04461EB12846FFF7B3FF0444204680
:108680001837BD46BDE8F08100F1080323F0070369
:10869000E846ADEB030D2246411C3B686846FFF7F8
:1086A0004BFD69462846FEF783FE0446C546E1E7D2
:1086B000014B00229A607047E8E603200021FFF793
:1086C000F7BB0021FFF7ECBB10B50446084621704C
:1086D000FFF7B6FB00236360204610BD13B50446C8
:1086E0000078FFF7EEFF58B9207801904FF6FF7140
:1086F000FFF796FB019802B0BDE81040FFF7DEBF20
:1087000002B010BD0078FFF7D9BF0000400830B5B7
:108710001860002418688842E5B206D90134082C94
:1087200002D040081860F5E70725024B5B5D137027
:1087300030BD00BF80940B002DE9F04306468FB09A
:1087400000780C46FFF7BDFF00281BDB35781422AC
:10875000002109A800F082FB0B23002209A928466A
:10876000ADF82430FFF77CFB9DF82D3013B19DF858
:108770002C5055B10027B946B846012523795DB183
:10878000C3B100200FB0BDE8F083DDF830809DF864
:1087900034909DF83570F1E7002B35D1A36843453F
:1087A00008D18DF820908DF82170BDF82020A38984
:1087B0009A42E6D00023A1688DF80F300A9804ABE6
:1087C0000DF10F02FFF7A2FF217985B989B9A368DE
:1087D00043450ED38DF820908DF82170BDF82020F0
:1087E000A3899A4205D1049B434502D1C9E70029D8
:1087F000F9D100230193637B00939DF80F20237B25
:108800003078FFF745FBBCE7CDE900552B462A46FB
:108810000121F5E708B50078FFF70AFBC0B208BDF3
:1088200030B587B004460A9D00950078FFF720FB1D
:108830003DB9207802A9FFF723FB9DF81430DB0730
:10884000F7D407B030BD10B50446FFF759FAE06021
:10885000236820465B699847002808DAFFF750FA3A
:10886000E368C01AA3689842F2D34FF0FF3010BDFE
:108870002DE9F04107460C468E180D46B542A5EB92
:10888000040807D03846FFF7DEFF031E02DB05F8B9
:10889000013BF3E74046BDE8F0810000054B0222B2
:1088A0001A60054B054A9A600020C3E90000FFF7F3
:1088B00087BB00BF04E70320F8E603200000FFFFAA
:1088C000024B1A68024B1A60704700BF50E1032048
:1088D00008E7032070474174704708B5007CFFF734
:1088E0001FFB20EAE07008BD08B5007CFFF7F0FA36
:1088F00020EAE07008BD08B5007CFFF7F9FA40EA0D
:10890000E07008BD08B5007CFFF7EAFA40EAE070C5
:1089100008BD007CFFF7F4BA37B5457C04462DB19D
:10892000207C03B0BDE83040FFF7CABA007C01915B
:10893000FFF7F6FA00280199F2DC284603B030BDB3
:1089400010B514210446FCF7B6F8204610BD00000F
:1089500010B54FF47A730446084611460022C4E964
:108960000123044B2360012320746374FFF7E0FAB2
:10897000204610BDAC940B0041747047704770479F
:1089800008B50021007CFFF7FBFA40EAE07008BD63
:1089900008B50121007CFFF7F3FA40EAE07008BD5A
:1089A00008B5007CFFF7E4FA20EAE07008BD08B5DE
:1089B000007CFFF7D5FA20EAE07008BD13B5044645
:1089C000007C0191FFF7D4FA0028019901DC607C5A
:1089D00020B1207CFFF7DCFA20EAE07002B010BD85
:1089E000007CFFF7DDBA10B514210446FCF763F8EC
:1089F000204610BD10B54FF47A7304460846002196
:108A0000C4E90113044B23600123207463741146ED
:108A1000FFF796FA204610BDE0940B00007C002280
:108A2000FFF796BA007CFFF7C3BAFFF7FBBF10B59C
:108A300014220446002100F011FA204610BD000067
:108A400010B50F4C88B003A8FFF7F1FF2178BFF3F2
:108A50005B8F11F001010FD120460191FCF72DF839
:108A6000019948B103AA0748FFF7C4FF2046FCF765
:108A700029F8054800F0CEF9024808B010BD00BF43
:108A80000CE7032010E703207D890B0000224068DB
:108A90001146FFF7E9BA002240681146FFF704BB10
:108AA000002240681146FFF70FBB40680022FFF725
:108AB00003BB4068002281F00101FFF7EDBA0023FB
:108AC00040681A461946FFF7DFBA002340681A4685
:108AD0001946FFF7D1BA002240681146FFF7B4BA31
:108AE000406800220221FFF7B7BA002340681A4607
:108AF000FFF7A2BA024B04225A60024A1A6070477A
:108B000024E7032014950B00014B1860704700BF49
:108B100054E1032008B50B4B43B1FFF791FF036805
:108B20001B699847002801DDAFF30080064B43B175
:108B300000F04AF903681B699847002801DDAFF38C
:108B4000008008BD000000000000000008B5FFF72D
:108B5000E1FFFFF7D5F8014B186008BD34E70320AB
:108B60000548064A064908B5121A00F069F9054B8E
:108B7000054A1A6008BD00BF00F4032004F4032076
:108B8000D0960B0000F403201E1C279A07B5002383
:108B900000931A466FF07701FFF734FA03B05DF8DF
:108BA00004FB000007B543880A2B08D0502B0BD1DB
:108BB000094B1B684BB103B05DF804EB1847FFF796
:108BC000E5FF03B05DF804FB002300931A466FF045
:108BD0007701FFF717FAF4E730E7032010B51248E2
:108BE0000021FFF7B9FA114B1A68114B9A42114B49
:108BF0000CBF012200221A7001D0FFF7B1FFFFF76E
:108C000067F8044600F032F90B4B13B12046AFF37E
:108C1000008000210848FFF707FABDE81040074828
:108C20000021FFF7E5B900BF098B0B0000F403201A
:108C30001E1C279A2CE7032000000000A58B0B00C8
:108C4000232813B502D9002002B010BDA0F10B03F8
:108C5000022B1AD8174C2178BFF35B8F11F001015A
:108C60000BD120460191FBF728FF019928B112484A
:108C7000FFF72AFD2046FBF725FF0F4B1878FFF77B
:108C8000E7F80028DFD10120DEE7012809D800F04D
:108C90005BF80021007CFFF793F880F00100C0B280
:108CA000D2E709380128EED800F08EF8007CFFF7F3
:108CB0002FF9F2E7BCE10320C0E10320232838B5F7
:108CC00004460D460AD8FF2908D0FFF7B9FF28B19E
:108CD00029462046BDE83840FFF71AB838BD38B5F8
:108CE00004460D46FFF71CF8FF2810D0062804D8CC
:108CF0004D2323FA00F0C30709D42046FFF7A0FF55
:108D000028B129462046BDE83840FFF711B838BDE4
:108D10007047000038B50A4B0360012304464361E5
:108D20000849202000F074F8202560600549A560FE
:108D3000284600F06DF8C4E90305204638BD00BFA1
:108D40001800010050950B0030B50E4D2978BFF387
:108D50005B8F11F0010487B011D12846FBF7ADFEFF
:108D600068B16846FFF7D6FF6A4621460648FFF716
:108D700071FA2846FBF7A6FE044800F04BF80248BB
:108D800007B030BD38E703203CE70320118D0B000E
:108D90007047000038B5044614252A46002100F02B
:108DA0005DF825804025074925812846258200F069
:108DB0002FF804496060284600F02AF8E060204659
:108DC00038BD00BF50950B0030B50E4D2978BFF36C
:108DD0005B8F11F0010487B011D12846FBF76DFEBF
:108DE00068B101A8FFF7D6FF01AA21460648FFF7A0
:108DF000AFFD2846FBF766FE044800F00BF802487A
:108E000007B030BD50E7032054E70320918D0B00DD
:108E1000FBF74FBE002301461A46184600F054B82F
:108E200010B501390244904201D1002005E00378D9
:108E300011F8014FA34201D0181B10BD0130F2E719
:108E40000A44914200F1FF3300D1704710B511F888
:108E5000014B03F8014F9142F9D110BD0244034682
:108E6000934200D1704703F8011BF9E738B5104B66
:108E70001D68AB6B0446B3B91820FFF74DF90246E5
:108E8000A86320B90B4B0C484221FFF75DF90B4951
:108E90000B4BC0E900130B4B83600B238381002134
:108EA0000120C2E90401AB6B00221C615A6138BD8C
:108EB00054E1032051950B0068950B000E33CDABA8
:108EC00034126DE6ECDE05002DE9F843DFF8B880DA
:108ED0000646D8F800001F460D46914600F056F8A9
:108EE000254B1C6834B9254C1C60254B13B11B68FD
:108EF000C4F8883063681F2B07DDD8F8000000F045
:108F000047F84FF0FF30BDE8F8834EB3D4F888003F
:108F100088B91C4B23B9D8F8000000F038F8F0E706
:108F20004FF48470FFF7F8F80028F4D00023C0E96C
:108F30004033C4F88800636840F8239001229A40C7
:108F400000EB8301D0F800311343C0F80031022E4A
:108F5000C1F8807002BFD0F804311343C0F8043167
:108F60006368D8F800005A1C0233626044F823504A
:108F700000F00EF80020C6E7F4E7032068E70320BE
:108F80000000000019810B00B8E103207047704712
:108F900070470000394A0B00754A0B009D4A0B00D0
:108FA000A14A0B00000000006E616E00696E660051
:108FB0006F7666002E0064656661756C7420004DE6
:108FC0005342004C5342003C5350495365747469FA
:108FD0006E67732064656661756C743E003C535027
:108FE0004953657474696E67732025732575202550
:108FF00073204D4F444525753E00436F756C6420CA
:109000006E6F742066696E642041533733343100CB
:10901000436F756C646E27742066696E64205254C9
:109020004300525443206973204E4F542072756E92
:109030006E696E672100415739353233206E6F7487
:1090400020666F756E643F20436865636B207769A7
:1090500072696E67210041573935323320666F756A
:109060006E642100325F31355F32345F3730306DEE
:10907000735F313238785F7468726F7567685F68E4
:109080006F6C655F64696C7574696F6E732E637362
:1090900076004461746520616E642054696D652CAE
:1090A00041535445502C4154494D452C4741494E5C
:1090B0002C4C4544205374617475732C4C454420EA
:1090C000496E74656E736974792C546573742C538E
:1090D00065636F6E64732C4D696C6C697365636F47
:1090E0006E64732C547970652C463120284261736C
:1090F0006963292C463220284261736963292C4612
:109100003320284261736963292C46342028426148
:10911000736963292C463520284261736963292CC1
:10912000463620284261736963292C46372028423D
:1091300061736963292C4638202842617369632969
:109140002C436C65617220284261736963292C4E3F
:10915000495220284261736963292C547970652C27
:1091600046312028526177292C46322028526177D7
:10917000292C46332028526177292C463420285246
:109180006177292C46352028526177292C463620D4
:1091900028526177292C46372028526177292C469E
:1091A000382028526177292C436C6561722028523F
:1091B0006177292C4E495220285261772900457247
:1091C000726F72206F70656E696E672066696C657C
:1091D00021004572726F722072656164696E67204A
:1091E000616C6C206368616E6E656C732100202871
:1091F000002920004C454420537461747573004C61
:10920000454420496E74656E7369747900362E305A
:1092100000424153494320434F554E54530052415D
:10922000572056414C554553004631203431356E58
:109230006D203A20002072617729004632203434B4
:10924000356E6D203A20004633203438306E6D2064
:109250003A20004634203531356E6D203A200046E4
:1092600035203535356E6D203A20004636203539AB
:10927000306E6D203A20004637203633306E6D2038
:109280003A20004638203638306E6D203A200043B0
:109290006C656172202020203A20004E4952202027
:1092A000202020203A2000626567696E2063686C88
:1092B0006F726F7068796C6C206D65617375726523
:1092C0006D656E747300456E642063686C6F726FB9
:1092D0007068796C6C206D6561737572656D656E13
:1092E000747300426567696E20747572626964699F
:1092F0007479206D6561737572656D656E74730048
:10930000456E6420747572626964697479206D6554
:1093100061737572656D656E747300000000000006
:10932000000000000D4D0B00CB4A0B00E94A0B007A
:109330000000000000000000E74A0B00F74A0B00A5
:10934000374B0B00314B0B00CD4A0B00114B0B0080
:109350000B4B0B00054B0B0071880B000001030A3F
:10936000050000000000003F0000803F00000040BA
:1093700000008040000000410000804100000042E9
:1093800000008042000000430000804300000044D1
:10939000000000000000000091580B001F1C1F1E61
:1093A0001F1E1F1F1E1F1E1F0000000000000000C8
:1093B000DF810B00D5810B00CB810B00C1810B003D
:1093C000B5810B00A9810B0051840B0059840B005F
:1093D0009D810B0095810B008B810B0081810B001F
:1093E00081850B0089840B0091840B000000000034
:1093F00000000000FD810B0047820B001F820B0064
:10940000FF810B0027820B002F820B0037820B009D
:109410003F820B0071880B0000000000000000007C
:1094200021830B0011830B0013830B00617070000C
:10943000D4E6032024E70320E0E603200000000038
:109440000000000011840B001B840B0025840B001E
:109450002F840B0039840B0045840B0051840B00D2
:1094600059840B0061840B006D840B0075840B0024
:109470007F840B0081850B0089840B0091840B0095
:10948000000810182028303825592D256D2D256409
:109490005425483A254D3A2553257A006173637463
:1094A000696D65000000000000000000D5880B0019
:1094B00041890B0019890B00A9850B00E9880B0075
:1094C00005890B00F7880B0013890B0071880B00CE
:1094D000D7880B00DB880B000000000000000000B4
:1094E0007F890B00E7890B00BD890B00A9850B0064
:1094F000AF890B0081890B0091890B00E1890B007A
:1095000071880B00A1890B0079890B000000000015
:1095100000000000EB8A0B00E18A0B00D78A0B00E9
:109520008D8A0B00CB8A0B00BF8A0B0051840B0085
:1095300059840B00B38A0B00AB8A0B00A18A0B0085
:10954000978A0B0081850B0089840B0091840B00A6
:10955000005245454E54206D616C6C6F63207375ED
:1095600063636565646564002F746D702F6A656E52
:109570006B696E732D4743432D31302D70697065D3
:109580006C696E652D34385F3230323031313234AF
:109590005F313630363138303633392F7372632FBE
:1095A0006E65776C69622F6E65776C69622F6C6986
:1095B00062632F7374646C69622F72616E642E63D0
:1095C0000000000051570B0071810B00E9810B0076
:1095D00001840B0095850B00B1860B009D880B0064
:0895E000C1880B00F58A0B00A5
:1095E800040000001400000003000000474E55006E
:1095F800F9DCE20D10D8EDD68B6272FAAFB8391DDE
:04960800D13D80557B
:10960C00FF00000053756E646179000000000000DB
:10961C004D6F6E6461790000000000005475657335
:10962C0064617900000000005765646E65736461C5
:10963C007900000054687572736461790000000051
:10964C004672696461790000000000005361747512
:10965C0072646179000000009C940B0058E10320B7
:10966C0000000000000000000000000000000000EE
:10967C0000000000000000000000000000000000DE
:10968C0000000000000000000000000000000000CE
:10969C0000000000000000000000000000000000BE
:1096AC0000000000000000000000000000000000AE
:1096BC00000000000000000000000000000000009E
:0496CC00F8E7032098
:0496D0000000000096
:1096DA0000000102030405060708090A0B0C0D0E17
:1096EA000F101112131415161718191A1B1C1D1E08
:0496FA001F20280005
:0496FE007856341254
:04000003B0004020E9
:00000001FF
